{
  "contractName": "ESlotsCrowdsale",
  "abi": [
    {
      "constant": true,
      "inputs": [],
      "name": "rate",
      "outputs": [
        {
          "name": "",
          "type": "uint256"
        }
      ],
      "payable": false,
      "stateMutability": "view",
      "type": "function"
    },
    {
      "constant": true,
      "inputs": [],
      "name": "endTime",
      "outputs": [
        {
          "name": "",
          "type": "uint256"
        }
      ],
      "payable": false,
      "stateMutability": "view",
      "type": "function"
    },
    {
      "constant": true,
      "inputs": [],
      "name": "weiRaised",
      "outputs": [
        {
          "name": "",
          "type": "uint256"
        }
      ],
      "payable": false,
      "stateMutability": "view",
      "type": "function"
    },
    {
      "constant": true,
      "inputs": [],
      "name": "wallet",
      "outputs": [
        {
          "name": "",
          "type": "address"
        }
      ],
      "payable": false,
      "stateMutability": "view",
      "type": "function"
    },
    {
      "constant": true,
      "inputs": [],
      "name": "startTime",
      "outputs": [
        {
          "name": "",
          "type": "uint256"
        }
      ],
      "payable": false,
      "stateMutability": "view",
      "type": "function"
    },
    {
      "constant": true,
      "inputs": [],
      "name": "owner",
      "outputs": [
        {
          "name": "",
          "type": "address"
        }
      ],
      "payable": false,
      "stateMutability": "view",
      "type": "function"
    },
    {
      "constant": true,
      "inputs": [
        {
          "name": "",
          "type": "address"
        }
      ],
      "name": "privateInvestors",
      "outputs": [
        {
          "name": "",
          "type": "uint256"
        }
      ],
      "payable": false,
      "stateMutability": "view",
      "type": "function"
    },
    {
      "constant": true,
      "inputs": [],
      "name": "state",
      "outputs": [
        {
          "name": "",
          "type": "uint8"
        }
      ],
      "payable": false,
      "stateMutability": "view",
      "type": "function"
    },
    {
      "constant": false,
      "inputs": [
        {
          "name": "newOwner",
          "type": "address"
        }
      ],
      "name": "transferOwnership",
      "outputs": [],
      "payable": false,
      "stateMutability": "nonpayable",
      "type": "function"
    },
    {
      "inputs": [
        {
          "name": "tokenContract",
          "type": "address"
        }
      ],
      "payable": false,
      "stateMutability": "nonpayable",
      "type": "constructor"
    },
    {
      "payable": true,
      "stateMutability": "payable",
      "type": "fallback"
    },
    {
      "anonymous": false,
      "inputs": [
        {
          "indexed": true,
          "name": "purchaser",
          "type": "address"
        },
        {
          "indexed": true,
          "name": "beneficiary",
          "type": "address"
        },
        {
          "indexed": false,
          "name": "value",
          "type": "uint256"
        },
        {
          "indexed": false,
          "name": "amount",
          "type": "uint256"
        }
      ],
      "name": "TokenPurchase",
      "type": "event"
    },
    {
      "anonymous": false,
      "inputs": [
        {
          "indexed": true,
          "name": "previousOwner",
          "type": "address"
        },
        {
          "indexed": true,
          "name": "newOwner",
          "type": "address"
        }
      ],
      "name": "OwnershipTransferred",
      "type": "event"
    },
    {
      "constant": false,
      "inputs": [
        {
          "name": "beneficiary",
          "type": "address"
        }
      ],
      "name": "buyTokens",
      "outputs": [],
      "payable": true,
      "stateMutability": "payable",
      "type": "function"
    },
    {
      "constant": false,
      "inputs": [
        {
          "name": "beneficiary",
          "type": "address"
        },
        {
          "name": "value",
          "type": "uint256"
        }
      ],
      "name": "addPrivateInvestor",
      "outputs": [],
      "payable": false,
      "stateMutability": "nonpayable",
      "type": "function"
    },
    {
      "constant": false,
      "inputs": [],
      "name": "startPreSale",
      "outputs": [],
      "payable": false,
      "stateMutability": "nonpayable",
      "type": "function"
    },
    {
      "constant": false,
      "inputs": [],
      "name": "startICO",
      "outputs": [],
      "payable": false,
      "stateMutability": "nonpayable",
      "type": "function"
    },
    {
      "constant": false,
      "inputs": [],
      "name": "stopICO",
      "outputs": [],
      "payable": false,
      "stateMutability": "nonpayable",
      "type": "function"
    },
    {
      "constant": false,
      "inputs": [],
      "name": "cleanup",
      "outputs": [],
      "payable": false,
      "stateMutability": "nonpayable",
      "type": "function"
    },
    {
      "constant": true,
      "inputs": [],
      "name": "hasEnded",
      "outputs": [
        {
          "name": "",
          "type": "bool"
        }
      ],
      "payable": false,
      "stateMutability": "view",
      "type": "function"
    },
    {
      "constant": true,
      "inputs": [
        {
          "name": "weiAmount",
          "type": "uint256"
        }
      ],
      "name": "getTokenAmount",
      "outputs": [
        {
          "name": "",
          "type": "uint256"
        }
      ],
      "payable": false,
      "stateMutability": "view",
      "type": "function"
    }
  ],
  "bytecode": "0x6060604052737b97b31e12f7d029769c53cb91c83d29611a4f7a600560006101000a81548173ffffffffffffffffffffffffffffffffffffffff021916908373ffffffffffffffffffffffffffffffffffffffff1602179055506103e8600655341561006a57600080fd5b6040516020806115c88339810160405280805190602001909190505080336000806101000a81548173ffffffffffffffffffffffffffffffffffffffff021916908373ffffffffffffffffffffffffffffffffffffffff160217905550600073ffffffffffffffffffffffffffffffffffffffff168173ffffffffffffffffffffffffffffffffffffffff161415151561010357600080fd5b80600160006101000a81548173ffffffffffffffffffffffffffffffffffffffff021916908373ffffffffffffffffffffffffffffffffffffffff160217905550600160009054906101000a900473ffffffffffffffffffffffffffffffffffffffff16600260006101000a81548173ffffffffffffffffffffffffffffffffffffffff021916908373ffffffffffffffffffffffffffffffffffffffff160217905550506000600260146101000a81548160ff021916908360038111156101c757fe5b0217905550600060038190555060006004819055506000600781905550506113d4806101f46000396000f3006060604052600436106100f1576000357c0100000000000000000000000000000000000000000000000000000000900463ffffffff1680632c4e722e146100fc5780633197cbb6146101255780633cecd7191461014e5780634042b66f14610163578063521eb2731461018c57806355dd574c146101e157806378e97925146101f65780637fa8c1581461021f5780638da5cb5b14610234578063aadee89c14610289578063c19d93fb146102d6578063c2507ac11461030d578063c8e569a814610344578063d675ecbd14610359578063ec8ac4d81461039b578063ecb70fb7146103c9578063f2fde38b146103f6575b6100fa3361042f565b005b341561010757600080fd5b61010f610889565b6040518082815260200191505060405180910390f35b341561013057600080fd5b61013861088f565b6040518082815260200191505060405180910390f35b341561015957600080fd5b610161610895565b005b341561016e57600080fd5b6101766109b4565b6040518082815260200191505060405180910390f35b341561019757600080fd5b61019f6109ba565b604051808273ffffffffffffffffffffffffffffffffffffffff1673ffffffffffffffffffffffffffffffffffffffff16815260200191505060405180910390f35b34156101ec57600080fd5b6101f46109e0565b005b341561020157600080fd5b610209610a95565b6040518082815260200191505060405180910390f35b341561022a57600080fd5b610232610a9b565b005b341561023f57600080fd5b610247610b64565b604051808273ffffffffffffffffffffffffffffffffffffffff1673ffffffffffffffffffffffffffffffffffffffff16815260200191505060405180910390f35b341561029457600080fd5b6102c0600480803573ffffffffffffffffffffffffffffffffffffffff16906020019091905050610b89565b6040518082815260200191505060405180910390f35b34156102e157600080fd5b6102e9610ba1565b604051808260038111156102f957fe5b60ff16815260200191505060405180910390f35b341561031857600080fd5b61032e6004808035906020019091905050610bb4565b6040518082815260200191505060405180910390f35b341561034f57600080fd5b610357610ce8565b005b341561036457600080fd5b610399600480803573ffffffffffffffffffffffffffffffffffffffff16906020019091908035906020019091905050610e87565b005b6103c7600480803573ffffffffffffffffffffffffffffffffffffffff1690602001909190505061042f565b005b34156103d457600080fd5b6103dc610faf565b604051808215151515815260200191505060405180910390f35b341561040157600080fd5b61042d600480803573ffffffffffffffffffffffffffffffffffffffff169060200190919050506110ac565b005b60008060008073ffffffffffffffffffffffffffffffffffffffff168473ffffffffffffffffffffffffffffffffffffffff161415151561046f57600080fd5b610477611201565b151561048257600080fd5b34925061048e83610bb4565b9150600260009054906101000a900473ffffffffffffffffffffffffffffffffffffffff1673ffffffffffffffffffffffffffffffffffffffff166369bb4dc26000604051602001526040518163ffffffff167c0100000000000000000000000000000000000000000000000000000000028152600401602060405180830381600087803b151561051e57600080fd5b6102c65a03f1151561052f57600080fd5b50505060405180519050905081811015151561054a57600080fd5b6000600381111561055757fe5b600260149054906101000a900460ff16600381111561057257fe5b1415610651576000600860008673ffffffffffffffffffffffffffffffffffffffff1673ffffffffffffffffffffffffffffffffffffffff168152602001908152602001600020541115156105c657600080fd5b81600860008673ffffffffffffffffffffffffffffffffffffffff1673ffffffffffffffffffffffffffffffffffffffff16815260200190815260200160002054101561065057600860008573ffffffffffffffffffffffffffffffffffffffff1673ffffffffffffffffffffffffffffffffffffffff1681526020019081526020016000205491505b5b6106668360075461122990919063ffffffff16565b600781905550600560009054906101000a900473ffffffffffffffffffffffffffffffffffffffff1673ffffffffffffffffffffffffffffffffffffffff166108fc6106b385604b611247565b9081150290604051600060405180830381858888f1935050505015156106d857600080fd5b600260009054906101000a900473ffffffffffffffffffffffffffffffffffffffff1673ffffffffffffffffffffffffffffffffffffffff166323b872dd6000809054906101000a900473ffffffffffffffffffffffffffffffffffffffff1686856000604051602001526040518463ffffffff167c0100000000000000000000000000000000000000000000000000000000028152600401808473ffffffffffffffffffffffffffffffffffffffff1673ffffffffffffffffffffffffffffffffffffffff1681526020018373ffffffffffffffffffffffffffffffffffffffff1673ffffffffffffffffffffffffffffffffffffffff1681526020018281526020019350505050602060405180830381600087803b15156107fa57600080fd5b6102c65a03f1151561080b57600080fd5b50505060405180519050508373ffffffffffffffffffffffffffffffffffffffff163373ffffffffffffffffffffffffffffffffffffffff167f623b3804fa71d67900d064613da8f94b9617215ee90799290593e1745087ad188585604051808381526020018281526020019250505060405180910390a350505050565b60065481565b60045481565b6000809054906101000a900473ffffffffffffffffffffffffffffffffffffffff1673ffffffffffffffffffffffffffffffffffffffff163373ffffffffffffffffffffffffffffffffffffffff161415156108f057600080fd5b6003808111156108fc57fe5b600260149054906101000a900460ff16600381111561091757fe5b14151561092357600080fd5b624f1a0060045401421015151561093957600080fd5b600560009054906101000a900473ffffffffffffffffffffffffffffffffffffffff1673ffffffffffffffffffffffffffffffffffffffff166108fc3073ffffffffffffffffffffffffffffffffffffffff16319081150290604051600060405180830381858888f1935050505015156109b257600080fd5b565b60075481565b600560009054906101000a900473ffffffffffffffffffffffffffffffffffffffff1681565b6000809054906101000a900473ffffffffffffffffffffffffffffffffffffffff1673ffffffffffffffffffffffffffffffffffffffff163373ffffffffffffffffffffffffffffffffffffffff16141515610a3b57600080fd5b60006003811115610a4857fe5b600260149054906101000a900460ff166003811115610a6357fe5b141515610a6f57600080fd5b6001600260146101000a81548160ff02191690836003811115610a8e57fe5b0217905550565b60035481565b6000809054906101000a900473ffffffffffffffffffffffffffffffffffffffff1673ffffffffffffffffffffffffffffffffffffffff163373ffffffffffffffffffffffffffffffffffffffff16141515610af657600080fd5b60016003811115610b0357fe5b600260149054906101000a900460ff166003811115610b1e57fe5b141515610b2a57600080fd5b60028060146101000a81548160ff02191690836003811115610b4857fe5b0217905550426003819055506240998060035401600481905550565b6000809054906101000a900473ffffffffffffffffffffffffffffffffffffffff1681565b60086020528060005260406000206000915090505481565b600260149054906101000a900460ff1681565b6000806000610bce6006548561128990919063ffffffff16565b9150610bd9846112c4565b905060006003811115610be857fe5b600260149054906101000a900460ff166003811115610c0357fe5b1480610c34575060016003811115610c1757fe5b600260149054906101000a900460ff166003811115610c3257fe5b145b15610c5457610c4d60328261122990919063ffffffff16565b9050610cd5565b60026003811115610c6157fe5b600260149054906101000a900460ff166003811115610c7c57fe5b1415610cd45762093a8060035442031015610cac57610ca5601e8261122990919063ffffffff16565b9050610cd3565b621baf8060035442031015610cd257610ccf600f8261122990919063ffffffff16565b90505b5b5b5b610cdf8282611356565b92505050919050565b6000809054906101000a900473ffffffffffffffffffffffffffffffffffffffff1673ffffffffffffffffffffffffffffffffffffffff163373ffffffffffffffffffffffffffffffffffffffff16141515610d4357600080fd5b60026003811115610d5057fe5b600260149054906101000a900460ff166003811115610d6b57fe5b141515610d7757600080fd5b6000600260009054906101000a900473ffffffffffffffffffffffffffffffffffffffff1673ffffffffffffffffffffffffffffffffffffffff166369bb4dc26000604051602001526040518163ffffffff167c0100000000000000000000000000000000000000000000000000000000028152600401602060405180830381600087803b1515610e0757600080fd5b6102c65a03f11515610e1857600080fd5b505050604051805190501480610e3e57506000600454118015610e3d57506004544210155b5b1515610e4957600080fd5b6000600754111515610e5a57600080fd5b6003600260146101000a81548160ff02191690836003811115610e7957fe5b021790555042600481905550565b6000809054906101000a900473ffffffffffffffffffffffffffffffffffffffff1673ffffffffffffffffffffffffffffffffffffffff163373ffffffffffffffffffffffffffffffffffffffff16141515610ee257600080fd5b60006003811115610eef57fe5b600260149054906101000a900460ff166003811115610f0a57fe5b141515610f1657600080fd5b610f6881600860008573ffffffffffffffffffffffffffffffffffffffff1673ffffffffffffffffffffffffffffffffffffffff1681526020019081526020016000205461122990919063ffffffff16565b600860008473ffffffffffffffffffffffffffffffffffffffff1673ffffffffffffffffffffffffffffffffffffffff168152602001908152602001600020819055505050565b6000600380811115610fbd57fe5b600260149054906101000a900460ff166003811115610fd857fe5b148061108c57506000600260009054906101000a900473ffffffffffffffffffffffffffffffffffffffff1673ffffffffffffffffffffffffffffffffffffffff166369bb4dc26000604051602001526040518163ffffffff167c0100000000000000000000000000000000000000000000000000000000028152600401602060405180830381600087803b151561106f57600080fd5b6102c65a03f1151561108057600080fd5b50505060405180519050145b806110a7575060006004541180156110a657506004544210155b5b905090565b6000809054906101000a900473ffffffffffffffffffffffffffffffffffffffff1673ffffffffffffffffffffffffffffffffffffffff163373ffffffffffffffffffffffffffffffffffffffff1614151561110757600080fd5b600073ffffffffffffffffffffffffffffffffffffffff168173ffffffffffffffffffffffffffffffffffffffff161415151561114357600080fd5b8073ffffffffffffffffffffffffffffffffffffffff166000809054906101000a900473ffffffffffffffffffffffffffffffffffffffff1673ffffffffffffffffffffffffffffffffffffffff167f8be0079c531659141344cd1fd0a4f28419497f9722a3daafe3b4186f6b6457e060405160405180910390a3806000806101000a81548173ffffffffffffffffffffffffffffffffffffffff021916908373ffffffffffffffffffffffffffffffffffffffff16021790555050565b6000806000341415905060001515611217610faf565b15151480156112235750805b91505090565b600080828401905083811015151561123d57fe5b8091505092915050565b60008082141561125a5760009050611283565b6112806064611272848661128990919063ffffffff16565b61138d90919063ffffffff16565b90505b92915050565b600080600084141561129e57600091506112bd565b82840290508284828115156112af57fe5b041415156112b957fe5b8091505b5092915050565b6000683635c9adc5dea00000821015156112e15760329050611351565b681b1ae4d6e2ef500000821015156112fc57601e9050611351565b68056bc75e2d631000008210151561131757600f9050611351565b6802b5e3af16b18800008210151561133257600a9050611351565b678ac7230489e800008210151561134c5760059050611351565b600090505b919050565b60008082141561136857829050611387565b6113846113758484611247565b8461122990919063ffffffff16565b90505b92915050565b600080828481151561139b57fe5b04905080915050929150505600a165627a7a72305820acd0c4a8dfabf3a371ecc373cebee3469a7d53ad9b5fd006b23edf1acbd4f42d0029",
  "source": "pragma solidity ^0.4.2;\n\nimport \"./math/SafeMath.sol\";\nimport \"./ownership/Ownable.sol\";\nimport \"./ESlotsICOTokenDeployed.sol\";\n\n\ncontract ESlotsCrowdsale is Ownable, ESlotsICOTokenDeployed {\n    using SafeMath for uint256;\n\n    enum State { PrivatePreSale, PreSale, ActiveICO, ICOComplete }\n    State public state;\n\n    // start and end timestamps for dates when investments are allowed (both inclusive)\n    uint256 public startTime;\n    uint256 public endTime;\n\n    // address for funds collecting\n    address public wallet = 0x7b97B31E12f7d029769c53cB91c83d29611A4F7A;\n\n    // how many token units a buyer gets per wei\n    uint256 public rate = 1000; //base price: 1 EST token costs 0.001 Ether\n\n    // amount of raised money in wei\n    uint256 public weiRaised;\n\n    mapping (address => uint256) public privateInvestors;\n\n    /**\n   * event for token purchase logging\n   * @param purchaser who paid for the tokens\n   * @param beneficiary who got the tokens\n   * @param value weis paid for purchase\n   * @param amount amount of tokens purchased\n   */\n    event TokenPurchase(address indexed purchaser, address indexed beneficiary, uint256 value, uint256 amount);\n\n    function ESlotsCrowdsale(address tokenContract) public\n    ESlotsICOTokenDeployed(tokenContract)\n    {\n        state = State.PrivatePreSale;\n        startTime = 0;\n        endTime = 0;\n        weiRaised = 0;\n        //do not forget to call\n        //icoContract.connectCrowdsaleContract(this);\n    }\n\n    // fallback function can be used to buy tokens\n    function () external payable {\n        buyTokens(msg.sender);\n    }\n\n    // low level token purchase function\n    function buyTokens(address beneficiary) public payable {\n        require(beneficiary != address(0));\n        require(validPurchase());\n\n\n        uint256 weiAmount = msg.value;\n        // calculate amount of tokens to be created\n        uint256 tokens = getTokenAmount(weiAmount);\n        uint256 av_tokens = icoContract.availableTokens();\n        require(av_tokens >= tokens);\n        if(state == State.PrivatePreSale) {\n            require(privateInvestors[beneficiary] > 0);\n            //restrict sales in private period\n            if(privateInvestors[beneficiary] < tokens) {\n                tokens = privateInvestors[beneficiary];\n            }\n        }\n            // update state\n        weiRaised = weiRaised.add(weiAmount);\n        //we can get only 75% to development, 25% will be unlocked after 2 months to fill out casino contract bankroll\n        wallet.transfer(percents(weiAmount, 75));\n        icoContract.transferFrom(owner, beneficiary, tokens);\n        TokenPurchase(msg.sender, beneficiary, weiAmount, tokens);\n    }\n\n    function addPrivateInvestor(address beneficiary, uint256 value) public onlyOwner {\n        require(state == State.PrivatePreSale);\n        privateInvestors[beneficiary] = privateInvestors[beneficiary].add(value);\n    }\n\n    function startPreSale() public onlyOwner {\n        require(state == State.PrivatePreSale);\n        state = State.PreSale;\n    }\n\n    function startICO() public onlyOwner {\n        require(state == State.PreSale);\n        state = State.ActiveICO;\n        startTime = now;\n        endTime = startTime + 7 weeks;\n    }\n\n    function stopICO() public onlyOwner {\n        require(state == State.ActiveICO);\n        require(icoContract.availableTokens() == 0 || (endTime > 0 && now >= endTime));\n        require(weiRaised > 0);\n        state = State.ICOComplete;\n        endTime = now;\n    }\n\n    // Allow getting slots bankroll after 60 days only\n    function cleanup() public onlyOwner {\n        require(state == State.ICOComplete);\n        require(now >= (endTime + 60 days));\n        wallet.transfer(this.balance);\n    }\n\n    // @return true if crowdsale ended\n    function hasEnded() public view returns (bool) {\n        return state == State.ICOComplete || icoContract.availableTokens() == 0 || (endTime > 0 && now >= endTime);\n    }\n\n    // Calculate amount of tokens depending on crowdsale phase and time\n    function getTokenAmount(uint256 weiAmount) public view returns(uint256) {\n        uint256 totalTokens = weiAmount.mul(rate);\n        uint256 bonus = getLargeAmountBonus(weiAmount);\n        if(state == State.PrivatePreSale ||  state == State.PreSale) {\n            //PreSale has 50% bonus!\n            bonus = bonus.add(50);\n        } else if(state == State.ActiveICO) {\n            if((now - startTime) < 1 weeks) {\n                //30% first week\n                bonus = bonus.add(30);\n            } else if((now - startTime) < 3 weeks) {\n                //15% second and third weeks\n                bonus = bonus.add(15);\n            }\n        }\n        return addPercents(totalTokens, bonus);\n    }\n\n    function addPercents(uint256 amount, uint256 percent) internal pure returns(uint256) {\n        if(percent == 0) return amount;\n        return amount.add(percents(amount, percent));\n    }\n\n    function percents(uint256 amount, uint256 percent) internal pure returns(uint256) {\n        if(percent == 0) return 0;\n        return amount.mul(percent).div(100);\n    }\n\n    function getLargeAmountBonus(uint256 weiAmount) internal pure returns(uint256) {\n        if(weiAmount >= 1000 ether) {\n            return 50;\n        }\n        if(weiAmount >= 500 ether) {\n            return 30;\n        }\n        if(weiAmount >= 100 ether) {\n            return 15;\n        }\n        if(weiAmount >= 50 ether) {\n            return 10;\n        }\n        if(weiAmount >= 10 ether) {\n            return 5;\n        }\n       return 0;\n    }\n\n    // return true if the transaction is suitable for buying tokens\n    function validPurchase() internal view returns (bool) {\n        bool nonZeroPurchase = msg.value != 0;\n        return hasEnded() == false && nonZeroPurchase;\n    }\n\n}",
  "sourcePath": "/Users/maestro/Documents/proj/slot-server/contract/src/contracts/ESlotsCrowdsale.sol",
  "compiler": {
    "name": "solc",
    "version": "0.4.19+commit.c4cbbb05.Emscripten.clang"
  },
  "schemaVersion": "2.0.0",
  "updatedAt": "2018-03-20T10:18:36.453Z"
}