{
  "contractName": "ESlotsToken",
  "abi": [
    {
      "constant": true,
      "inputs": [],
      "name": "name",
      "outputs": [
        {
          "name": "",
          "type": "string"
        }
      ],
      "payable": false,
      "stateMutability": "view",
      "type": "function"
    },
    {
      "constant": false,
      "inputs": [
        {
          "name": "_spender",
          "type": "address"
        },
        {
          "name": "_value",
          "type": "uint256"
        }
      ],
      "name": "approve",
      "outputs": [
        {
          "name": "",
          "type": "bool"
        }
      ],
      "payable": false,
      "stateMutability": "nonpayable",
      "type": "function"
    },
    {
      "constant": true,
      "inputs": [],
      "name": "totalSupply",
      "outputs": [
        {
          "name": "",
          "type": "uint256"
        }
      ],
      "payable": false,
      "stateMutability": "view",
      "type": "function"
    },
    {
      "constant": true,
      "inputs": [],
      "name": "getTotalDividendsRounds",
      "outputs": [
        {
          "name": "",
          "type": "uint256"
        }
      ],
      "payable": false,
      "stateMutability": "view",
      "type": "function"
    },
    {
      "constant": true,
      "inputs": [],
      "name": "INITIAL_SUPPLY",
      "outputs": [
        {
          "name": "",
          "type": "uint256"
        }
      ],
      "payable": false,
      "stateMutability": "view",
      "type": "function"
    },
    {
      "constant": true,
      "inputs": [],
      "name": "decimals",
      "outputs": [
        {
          "name": "",
          "type": "uint8"
        }
      ],
      "payable": false,
      "stateMutability": "view",
      "type": "function"
    },
    {
      "constant": false,
      "inputs": [
        {
          "name": "_spender",
          "type": "address"
        },
        {
          "name": "_subtractedValue",
          "type": "uint256"
        }
      ],
      "name": "decreaseApproval",
      "outputs": [
        {
          "name": "",
          "type": "bool"
        }
      ],
      "payable": false,
      "stateMutability": "nonpayable",
      "type": "function"
    },
    {
      "constant": true,
      "inputs": [
        {
          "name": "_owner",
          "type": "address"
        }
      ],
      "name": "balanceOf",
      "outputs": [
        {
          "name": "balance",
          "type": "uint256"
        }
      ],
      "payable": false,
      "stateMutability": "view",
      "type": "function"
    },
    {
      "constant": true,
      "inputs": [],
      "name": "owner",
      "outputs": [
        {
          "name": "",
          "type": "address"
        }
      ],
      "payable": false,
      "stateMutability": "view",
      "type": "function"
    },
    {
      "constant": true,
      "inputs": [],
      "name": "symbol",
      "outputs": [
        {
          "name": "",
          "type": "string"
        }
      ],
      "payable": false,
      "stateMutability": "view",
      "type": "function"
    },
    {
      "constant": true,
      "inputs": [],
      "name": "foundersStake",
      "outputs": [
        {
          "name": "",
          "type": "uint256"
        }
      ],
      "payable": false,
      "stateMutability": "view",
      "type": "function"
    },
    {
      "constant": true,
      "inputs": [],
      "name": "getTotalDividendsAmount",
      "outputs": [
        {
          "name": "",
          "type": "uint256"
        }
      ],
      "payable": false,
      "stateMutability": "view",
      "type": "function"
    },
    {
      "constant": true,
      "inputs": [],
      "name": "state",
      "outputs": [
        {
          "name": "",
          "type": "uint8"
        }
      ],
      "payable": false,
      "stateMutability": "view",
      "type": "function"
    },
    {
      "constant": true,
      "inputs": [],
      "name": "dividendRoundsBeforeFoundersStakeUnlock",
      "outputs": [
        {
          "name": "",
          "type": "uint256"
        }
      ],
      "payable": false,
      "stateMutability": "view",
      "type": "function"
    },
    {
      "constant": false,
      "inputs": [
        {
          "name": "_spender",
          "type": "address"
        },
        {
          "name": "_addedValue",
          "type": "uint256"
        }
      ],
      "name": "increaseApproval",
      "outputs": [
        {
          "name": "",
          "type": "bool"
        }
      ],
      "payable": false,
      "stateMutability": "nonpayable",
      "type": "function"
    },
    {
      "constant": true,
      "inputs": [],
      "name": "getTotalUnPayedDividendsAmount",
      "outputs": [
        {
          "name": "",
          "type": "uint256"
        }
      ],
      "payable": false,
      "stateMutability": "view",
      "type": "function"
    },
    {
      "constant": true,
      "inputs": [
        {
          "name": "_owner",
          "type": "address"
        },
        {
          "name": "_spender",
          "type": "address"
        }
      ],
      "name": "allowance",
      "outputs": [
        {
          "name": "",
          "type": "uint256"
        }
      ],
      "payable": false,
      "stateMutability": "view",
      "type": "function"
    },
    {
      "constant": false,
      "inputs": [
        {
          "name": "newOwner",
          "type": "address"
        }
      ],
      "name": "transferOwnership",
      "outputs": [],
      "payable": false,
      "stateMutability": "nonpayable",
      "type": "function"
    },
    {
      "inputs": [],
      "payable": false,
      "stateMutability": "nonpayable",
      "type": "constructor"
    },
    {
      "anonymous": false,
      "inputs": [
        {
          "indexed": true,
          "name": "burner",
          "type": "address"
        },
        {
          "indexed": false,
          "name": "value",
          "type": "uint256"
        }
      ],
      "name": "Burn",
      "type": "event"
    },
    {
      "anonymous": false,
      "inputs": [
        {
          "indexed": false,
          "name": "round",
          "type": "uint256"
        },
        {
          "indexed": false,
          "name": "value",
          "type": "uint256"
        }
      ],
      "name": "Dividends",
      "type": "event"
    },
    {
      "anonymous": false,
      "inputs": [
        {
          "indexed": false,
          "name": "investor",
          "type": "address"
        },
        {
          "indexed": false,
          "name": "value",
          "type": "uint256"
        }
      ],
      "name": "ClaimDividends",
      "type": "event"
    },
    {
      "anonymous": false,
      "inputs": [
        {
          "indexed": true,
          "name": "owner",
          "type": "address"
        },
        {
          "indexed": true,
          "name": "spender",
          "type": "address"
        },
        {
          "indexed": false,
          "name": "value",
          "type": "uint256"
        }
      ],
      "name": "Approval",
      "type": "event"
    },
    {
      "anonymous": false,
      "inputs": [
        {
          "indexed": true,
          "name": "from",
          "type": "address"
        },
        {
          "indexed": true,
          "name": "to",
          "type": "address"
        },
        {
          "indexed": false,
          "name": "value",
          "type": "uint256"
        }
      ],
      "name": "Transfer",
      "type": "event"
    },
    {
      "anonymous": false,
      "inputs": [
        {
          "indexed": true,
          "name": "previousOwner",
          "type": "address"
        },
        {
          "indexed": true,
          "name": "newOwner",
          "type": "address"
        }
      ],
      "name": "OwnershipTransferred",
      "type": "event"
    },
    {
      "constant": true,
      "inputs": [],
      "name": "maxTokensToSale",
      "outputs": [
        {
          "name": "",
          "type": "uint256"
        }
      ],
      "payable": false,
      "stateMutability": "view",
      "type": "function"
    },
    {
      "constant": true,
      "inputs": [],
      "name": "availableTokens",
      "outputs": [
        {
          "name": "",
          "type": "uint256"
        }
      ],
      "payable": false,
      "stateMutability": "view",
      "type": "function"
    },
    {
      "constant": false,
      "inputs": [
        {
          "name": "newGasUsage",
          "type": "uint256"
        }
      ],
      "name": "setGasUsage",
      "outputs": [],
      "payable": false,
      "stateMutability": "nonpayable",
      "type": "function"
    },
    {
      "constant": false,
      "inputs": [
        {
          "name": "crowdsaleContract",
          "type": "address"
        }
      ],
      "name": "connectCrowdsaleContract",
      "outputs": [],
      "payable": false,
      "stateMutability": "nonpayable",
      "type": "function"
    },
    {
      "constant": false,
      "inputs": [],
      "name": "completeICO",
      "outputs": [],
      "payable": false,
      "stateMutability": "nonpayable",
      "type": "function"
    },
    {
      "constant": false,
      "inputs": [
        {
          "name": "_to",
          "type": "address"
        },
        {
          "name": "_value",
          "type": "uint256"
        }
      ],
      "name": "transfer",
      "outputs": [
        {
          "name": "",
          "type": "bool"
        }
      ],
      "payable": false,
      "stateMutability": "nonpayable",
      "type": "function"
    },
    {
      "constant": false,
      "inputs": [
        {
          "name": "_from",
          "type": "address"
        },
        {
          "name": "_to",
          "type": "address"
        },
        {
          "name": "_value",
          "type": "uint256"
        }
      ],
      "name": "transferFrom",
      "outputs": [
        {
          "name": "",
          "type": "bool"
        }
      ],
      "payable": false,
      "stateMutability": "nonpayable",
      "type": "function"
    },
    {
      "constant": true,
      "inputs": [
        {
          "name": "investor",
          "type": "address"
        }
      ],
      "name": "dividendsAmount",
      "outputs": [
        {
          "name": "",
          "type": "uint256"
        }
      ],
      "payable": false,
      "stateMutability": "view",
      "type": "function"
    },
    {
      "constant": false,
      "inputs": [],
      "name": "claimDividends",
      "outputs": [],
      "payable": true,
      "stateMutability": "payable",
      "type": "function"
    },
    {
      "constant": false,
      "inputs": [
        {
          "name": "investor",
          "type": "address"
        }
      ],
      "name": "pushDividends",
      "outputs": [],
      "payable": true,
      "stateMutability": "payable",
      "type": "function"
    },
    {
      "constant": false,
      "inputs": [],
      "name": "payDividends",
      "outputs": [],
      "payable": true,
      "stateMutability": "payable",
      "type": "function"
    }
  ],
  "bytecode": "0x6060604052600060045560006005556000600655737b97b31e12f7d029769c53cb91c83d29611a4f7a600860016101000a81548173ffffffffffffffffffffffffffffffffffffffff021916908373ffffffffffffffffffffffffffffffffffffffff16021790555034156200007457600080fd5b336000806101000a81548173ffffffffffffffffffffffffffffffffffffffff021916908373ffffffffffffffffffffffffffffffffffffffff160217905550601260ff16600a0a6302faf080026002819055506200011c6064620000ff600a601260ff16600a0a6302faf08002620002436401000000000262001fbb179091906401000000009004565b620002826401000000000262001ff6179091906401000000009004565b600981905550600954601260ff16600a0a6302faf0800203600a81905550600a54600160003373ffffffffffffffffffffffffffffffffffffffff1673ffffffffffffffffffffffffffffffffffffffff168152602001908152602001600020819055503373ffffffffffffffffffffffffffffffffffffffff1660007fddf252ad1be2c89b69c2b068fc378daa952ba7f163c4a11628f55a4df523b3ef600160003373ffffffffffffffffffffffffffffffffffffffff1673ffffffffffffffffffffffffffffffffffffffff168152602001908152602001600020546040518082815260200191505060405180910390a36000600860006101000a81548160ff021916908360018111156200022f57fe5b0217905550615208600b819055506200029e565b60008060008414156200025a57600091506200027b565b82840290508284828115156200026c57fe5b041415156200027757fe5b8091505b5092915050565b60008082848115156200029157fe5b0490508091505092915050565b61245680620002ae6000396000f300606060405260043610610175576000357c0100000000000000000000000000000000000000000000000000000000900463ffffffff16806306fdde031461017a578063095ea7b31461020857806318160ddd1461026257806318ecc6f41461028b57806323b872dd146102b45780632ff2e9dc1461032d578063313ce567146103565780633d3161341461038557806349e4347b146103ae5780634e3673a6146103c357806366188463146103fc578063668038e01461045657806369bb4dc21461046057806370a08231146104895780637c796a83146104d65780638da5cb5b146104f957806395d89b411461054e578063a4d904ba146105dc578063a9059cbb14610605578063a991faf91461065f578063c19d93fb14610688578063cbf4531d146106bf578063cfc2a93e1461070c578063d73dd62314610735578063dc97a4f91461078f578063dcb951de146107b8578063dd62ed3e146107e6578063de88a34214610852578063f2fde38b1461085c575b600080fd5b341561018557600080fd5b61018d610895565b6040518080602001828103825283818151815260200191508051906020019080838360005b838110156101cd5780820151818401526020810190506101b2565b50505050905090810190601f1680156101fa5780820380516001836020036101000a031916815260200191505b509250505060405180910390f35b341561021357600080fd5b610248600480803573ffffffffffffffffffffffffffffffffffffffff169060200190919080359060200190919050506108ce565b604051808215151515815260200191505060405180910390f35b341561026d57600080fd5b6102756109c0565b6040518082815260200191505060405180910390f35b341561029657600080fd5b61029e6109ca565b6040518082815260200191505060405180910390f35b34156102bf57600080fd5b610313600480803573ffffffffffffffffffffffffffffffffffffffff1690602001909190803573ffffffffffffffffffffffffffffffffffffffff169060200190919080359060200190919050506109d4565b604051808215151515815260200191505060405180910390f35b341561033857600080fd5b610340610be7565b6040518082815260200191505060405180910390f35b341561036157600080fd5b610369610bf8565b604051808260ff1660ff16815260200191505060405180910390f35b341561039057600080fd5b610398610bfd565b6040518082815260200191505060405180910390f35b34156103b957600080fd5b6103c1610c07565b005b34156103ce57600080fd5b6103fa600480803573ffffffffffffffffffffffffffffffffffffffff16906020019091905050610e8c565b005b341561040757600080fd5b61043c600480803573ffffffffffffffffffffffffffffffffffffffff16906020019091908035906020019091905050610f55565b604051808215151515815260200191505060405180910390f35b61045e6111e6565b005b341561046b57600080fd5b610473611226565b6040518082815260200191505060405180910390f35b341561049457600080fd5b6104c0600480803573ffffffffffffffffffffffffffffffffffffffff1690602001909190505061128e565b6040518082815260200191505060405180910390f35b34156104e157600080fd5b6104f760048080359060200190919050506112d7565b005b341561050457600080fd5b61050c61133c565b604051808273ffffffffffffffffffffffffffffffffffffffff1673ffffffffffffffffffffffffffffffffffffffff16815260200191505060405180910390f35b341561055957600080fd5b610561611361565b6040518080602001828103825283818151815260200191508051906020019080838360005b838110156105a1578082015181840152602081019050610586565b50505050905090810190601f1680156105ce5780820380516001836020036101000a031916815260200191505b509250505060405180910390f35b34156105e757600080fd5b6105ef61139a565b6040518082815260200191505060405180910390f35b341561061057600080fd5b610645600480803573ffffffffffffffffffffffffffffffffffffffff1690602001909190803590602001909190505061139f565b604051808215151515815260200191505060405180910390f35b341561066a57600080fd5b6106726115b0565b6040518082815260200191505060405180910390f35b341561069357600080fd5b61069b6115ba565b604051808260018111156106ab57fe5b60ff16815260200191505060405180910390f35b34156106ca57600080fd5b6106f6600480803573ffffffffffffffffffffffffffffffffffffffff169060200190919050506115cd565b6040518082815260200191505060405180910390f35b341561071757600080fd5b61071f61176b565b6040518082815260200191505060405180910390f35b341561074057600080fd5b610775600480803573ffffffffffffffffffffffffffffffffffffffff16906020019091908035906020019091905050611770565b604051808215151515815260200191505060405180910390f35b341561079a57600080fd5b6107a261196c565b6040518082815260200191505060405180910390f35b6107e4600480803573ffffffffffffffffffffffffffffffffffffffff16906020019091905050611976565b005b34156107f157600080fd5b61083c600480803573ffffffffffffffffffffffffffffffffffffffff1690602001909190803573ffffffffffffffffffffffffffffffffffffffff169060200190919050506119ca565b6040518082815260200191505060405180910390f35b61085a611a51565b005b341561086757600080fd5b610893600480803573ffffffffffffffffffffffffffffffffffffffff16906020019091905050611a8e565b005b6040805190810160405280601b81526020017f457468657265756d20536c6f74204d616368696e6520546f6b656e000000000081525081565b600081600360003373ffffffffffffffffffffffffffffffffffffffff1673ffffffffffffffffffffffffffffffffffffffff16815260200190815260200160002060008573ffffffffffffffffffffffffffffffffffffffff1673ffffffffffffffffffffffffffffffffffffffff168152602001908152602001600020819055508273ffffffffffffffffffffffffffffffffffffffff163373ffffffffffffffffffffffffffffffffffffffff167f8c5be1e5ebec7d5bd14f71427d1e84f3dd0314c0f7b2291e5b200ac8c7c3b925846040518082815260200191505060405180910390a36001905092915050565b6000600254905090565b6000600554905090565b600080600860019054906101000a900473ffffffffffffffffffffffffffffffffffffffff1673ffffffffffffffffffffffffffffffffffffffff163373ffffffffffffffffffffffffffffffffffffffff161415610a4d576000600454118015610a4157506004600554115b1515610a4c57600080fd5b5b600454600760008773ffffffffffffffffffffffffffffffffffffffff1673ffffffffffffffffffffffffffffffffffffffff16815260200190815260200160002054141515610a9c57600080fd5b6000600160008673ffffffffffffffffffffffffffffffffffffffff1673ffffffffffffffffffffffffffffffffffffffff168152602001908152602001600020541480610b2a5750600454600760008673ffffffffffffffffffffffffffffffffffffffff1673ffffffffffffffffffffffffffffffffffffffff16815260200190815260200160002054145b1515610b3557600080fd5b610b40858585611be3565b9050808015610b905750600454600760008673ffffffffffffffffffffffffffffffffffffffff1673ffffffffffffffffffffffffffffffffffffffff1681526020019081526020016000205414155b15610bdc57600454600760008673ffffffffffffffffffffffffffffffffffffffff1673ffffffffffffffffffffffffffffffffffffffff168152602001908152602001600020819055505b809150509392505050565b601260ff16600a0a6302faf0800281565b601281565b6000600a54905090565b6000806000809054906101000a900473ffffffffffffffffffffffffffffffffffffffff1673ffffffffffffffffffffffffffffffffffffffff163373ffffffffffffffffffffffffffffffffffffffff16141515610c6557600080fd5b60006001811115610c7257fe5b600860009054906101000a900460ff166001811115610c8d57fe5b141515610c9957600080fd5b6001600860006101000a81548160ff02191690836001811115610cb857fe5b0217905550610d32600160008060009054906101000a900473ffffffffffffffffffffffffffffffffffffffff1673ffffffffffffffffffffffffffffffffffffffff1673ffffffffffffffffffffffffffffffffffffffff16815260200190815260200160002054600a54611fa290919063ffffffff16565b9150610d5b6064610d4d600a85611fbb90919063ffffffff16565b611ff690919063ffffffff16565b9050600954811115610d6d5760095490505b610d99600860019054906101000a900473ffffffffffffffffffffffffffffffffffffffff1682612011565b50610dad818361223590919063ffffffff16565b6002819055506000600160008060009054906101000a900473ffffffffffffffffffffffffffffffffffffffff1673ffffffffffffffffffffffffffffffffffffffff1673ffffffffffffffffffffffffffffffffffffffff168152602001908152602001600020819055503373ffffffffffffffffffffffffffffffffffffffff167fcc16f5dbb4873280815c1ee09dbd06736cffcc184412cf7a71a0fdb75d397ca5610e73600254601260ff16600a0a6302faf08002611fa290919063ffffffff16565b6040518082815260200191505060405180910390a25050565b6000809054906101000a900473ffffffffffffffffffffffffffffffffffffffff1673ffffffffffffffffffffffffffffffffffffffff163373ffffffffffffffffffffffffffffffffffffffff16141515610ee757600080fd5b610f5181600160008060009054906101000a900473ffffffffffffffffffffffffffffffffffffffff1673ffffffffffffffffffffffffffffffffffffffff1673ffffffffffffffffffffffffffffffffffffffff168152602001908152602001600020546108ce565b5050565b600080600360003373ffffffffffffffffffffffffffffffffffffffff1673ffffffffffffffffffffffffffffffffffffffff16815260200190815260200160002060008573ffffffffffffffffffffffffffffffffffffffff1673ffffffffffffffffffffffffffffffffffffffff16815260200190815260200160002054905080831115611066576000600360003373ffffffffffffffffffffffffffffffffffffffff1673ffffffffffffffffffffffffffffffffffffffff16815260200190815260200160002060008673ffffffffffffffffffffffffffffffffffffffff1673ffffffffffffffffffffffffffffffffffffffff168152602001908152602001600020819055506110fa565b6110798382611fa290919063ffffffff16565b600360003373ffffffffffffffffffffffffffffffffffffffff1673ffffffffffffffffffffffffffffffffffffffff16815260200190815260200160002060008673ffffffffffffffffffffffffffffffffffffffff1673ffffffffffffffffffffffffffffffffffffffff168152602001908152602001600020819055505b8373ffffffffffffffffffffffffffffffffffffffff163373ffffffffffffffffffffffffffffffffffffffff167f8c5be1e5ebec7d5bd14f71427d1e84f3dd0314c0f7b2291e5b200ac8c7c3b925600360003373ffffffffffffffffffffffffffffffffffffffff1673ffffffffffffffffffffffffffffffffffffffff16815260200190815260200160002060008873ffffffffffffffffffffffffffffffffffffffff1673ffffffffffffffffffffffffffffffffffffffff168152602001908152602001600020546040518082815260200191505060405180910390a3600191505092915050565b6001808111156111f257fe5b600860009054906101000a900460ff16600181111561120d57fe5b14151561121957600080fd5b611224336000612253565b565b6000600160008060009054906101000a900473ffffffffffffffffffffffffffffffffffffffff1673ffffffffffffffffffffffffffffffffffffffff1673ffffffffffffffffffffffffffffffffffffffff16815260200190815260200160002054905090565b6000600160008373ffffffffffffffffffffffffffffffffffffffff1673ffffffffffffffffffffffffffffffffffffffff168152602001908152602001600020549050919050565b6000809054906101000a900473ffffffffffffffffffffffffffffffffffffffff1673ffffffffffffffffffffffffffffffffffffffff163373ffffffffffffffffffffffffffffffffffffffff1614151561133257600080fd5b80600b8190555050565b6000809054906101000a900473ffffffffffffffffffffffffffffffffffffffff1681565b6040805190810160405280600381526020017f455354000000000000000000000000000000000000000000000000000000000081525081565b600a81565b600080600860019054906101000a900473ffffffffffffffffffffffffffffffffffffffff1673ffffffffffffffffffffffffffffffffffffffff163373ffffffffffffffffffffffffffffffffffffffff16141561141857600060045411801561140c57506004600554115b151561141757600080fd5b5b600454600760003373ffffffffffffffffffffffffffffffffffffffff1673ffffffffffffffffffffffffffffffffffffffff1681526020019081526020016000205414151561146757600080fd5b6000600160008673ffffffffffffffffffffffffffffffffffffffff1673ffffffffffffffffffffffffffffffffffffffff1681526020019081526020016000205414806114f55750600454600760008673ffffffffffffffffffffffffffffffffffffffff1673ffffffffffffffffffffffffffffffffffffffff16815260200190815260200160002054145b151561150057600080fd5b61150a8484612011565b905080801561155a5750600454600760008673ffffffffffffffffffffffffffffffffffffffff1673ffffffffffffffffffffffffffffffffffffffff1681526020019081526020016000205414155b156115a657600454600760008673ffffffffffffffffffffffffffffffffffffffff1673ffffffffffffffffffffffffffffffffffffffff168152602001908152602001600020819055505b8091505092915050565b6000600454905090565b600860009054906101000a900460ff1681565b60006001808111156115db57fe5b600860009054906101000a900460ff1660018111156115f657fe5b14151561160257600080fd5b600060025414156116165760009050611766565b6000600160008473ffffffffffffffffffffffffffffffffffffffff1673ffffffffffffffffffffffffffffffffffffffff1681526020019081526020016000205414156116675760009050611766565b600454600760008473ffffffffffffffffffffffffffffffffffffffff1673ffffffffffffffffffffffffffffffffffffffff168152602001908152602001600020541015156116ba5760009050611766565b611763600254611755600160008673ffffffffffffffffffffffffffffffffffffffff1673ffffffffffffffffffffffffffffffffffffffff16815260200190815260200160002054600760008773ffffffffffffffffffffffffffffffffffffffff1673ffffffffffffffffffffffffffffffffffffffff1681526020019081526020016000205460045403611fbb90919063ffffffff16565b611ff690919063ffffffff16565b90505b919050565b600481565b600061180182600360003373ffffffffffffffffffffffffffffffffffffffff1673ffffffffffffffffffffffffffffffffffffffff16815260200190815260200160002060008673ffffffffffffffffffffffffffffffffffffffff1673ffffffffffffffffffffffffffffffffffffffff1681526020019081526020016000205461223590919063ffffffff16565b600360003373ffffffffffffffffffffffffffffffffffffffff1673ffffffffffffffffffffffffffffffffffffffff16815260200190815260200160002060008573ffffffffffffffffffffffffffffffffffffffff1673ffffffffffffffffffffffffffffffffffffffff168152602001908152602001600020819055508273ffffffffffffffffffffffffffffffffffffffff163373ffffffffffffffffffffffffffffffffffffffff167f8c5be1e5ebec7d5bd14f71427d1e84f3dd0314c0f7b2291e5b200ac8c7c3b925600360003373ffffffffffffffffffffffffffffffffffffffff1673ffffffffffffffffffffffffffffffffffffffff16815260200190815260200160002060008773ffffffffffffffffffffffffffffffffffffffff1673ffffffffffffffffffffffffffffffffffffffff168152602001908152602001600020546040518082815260200191505060405180910390a36001905092915050565b6000600654905090565b60018081111561198257fe5b600860009054906101000a900460ff16600181111561199d57fe5b1415156119a957600080fd5b6119c7816119c23a600b54611fbb90919063ffffffff16565b612253565b50565b6000600360008473ffffffffffffffffffffffffffffffffffffffff1673ffffffffffffffffffffffffffffffffffffffff16815260200190815260200160002060008373ffffffffffffffffffffffffffffffffffffffff1673ffffffffffffffffffffffffffffffffffffffff16815260200190815260200160002054905092915050565b600180811115611a5d57fe5b600860009054906101000a900460ff166001811115611a7857fe5b141515611a8457600080fd5b611a8c612391565b565b6000809054906101000a900473ffffffffffffffffffffffffffffffffffffffff1673ffffffffffffffffffffffffffffffffffffffff163373ffffffffffffffffffffffffffffffffffffffff16141515611ae957600080fd5b600073ffffffffffffffffffffffffffffffffffffffff168173ffffffffffffffffffffffffffffffffffffffff1614151515611b2557600080fd5b8073ffffffffffffffffffffffffffffffffffffffff166000809054906101000a900473ffffffffffffffffffffffffffffffffffffffff1673ffffffffffffffffffffffffffffffffffffffff167f8be0079c531659141344cd1fd0a4f28419497f9722a3daafe3b4186f6b6457e060405160405180910390a3806000806101000a81548173ffffffffffffffffffffffffffffffffffffffff021916908373ffffffffffffffffffffffffffffffffffffffff16021790555050565b60008073ffffffffffffffffffffffffffffffffffffffff168373ffffffffffffffffffffffffffffffffffffffff1614151515611c2057600080fd5b600160008573ffffffffffffffffffffffffffffffffffffffff1673ffffffffffffffffffffffffffffffffffffffff168152602001908152602001600020548211151515611c6e57600080fd5b600360008573ffffffffffffffffffffffffffffffffffffffff1673ffffffffffffffffffffffffffffffffffffffff16815260200190815260200160002060003373ffffffffffffffffffffffffffffffffffffffff1673ffffffffffffffffffffffffffffffffffffffff168152602001908152602001600020548211151515611cf957600080fd5b611d4b82600160008773ffffffffffffffffffffffffffffffffffffffff1673ffffffffffffffffffffffffffffffffffffffff16815260200190815260200160002054611fa290919063ffffffff16565b600160008673ffffffffffffffffffffffffffffffffffffffff1673ffffffffffffffffffffffffffffffffffffffff16815260200190815260200160002081905550611de082600160008673ffffffffffffffffffffffffffffffffffffffff1673ffffffffffffffffffffffffffffffffffffffff1681526020019081526020016000205461223590919063ffffffff16565b600160008573ffffffffffffffffffffffffffffffffffffffff1673ffffffffffffffffffffffffffffffffffffffff16815260200190815260200160002081905550611eb282600360008773ffffffffffffffffffffffffffffffffffffffff1673ffffffffffffffffffffffffffffffffffffffff16815260200190815260200160002060003373ffffffffffffffffffffffffffffffffffffffff1673ffffffffffffffffffffffffffffffffffffffff16815260200190815260200160002054611fa290919063ffffffff16565b600360008673ffffffffffffffffffffffffffffffffffffffff1673ffffffffffffffffffffffffffffffffffffffff16815260200190815260200160002060003373ffffffffffffffffffffffffffffffffffffffff1673ffffffffffffffffffffffffffffffffffffffff168152602001908152602001600020819055508273ffffffffffffffffffffffffffffffffffffffff168473ffffffffffffffffffffffffffffffffffffffff167fddf252ad1be2c89b69c2b068fc378daa952ba7f163c4a11628f55a4df523b3ef846040518082815260200191505060405180910390a3600190509392505050565b6000828211151515611fb057fe5b818303905092915050565b6000806000841415611fd05760009150611fef565b8284029050828482811515611fe157fe5b04141515611feb57fe5b8091505b5092915050565b600080828481151561200457fe5b0490508091505092915050565b60008073ffffffffffffffffffffffffffffffffffffffff168373ffffffffffffffffffffffffffffffffffffffff161415151561204e57600080fd5b600160003373ffffffffffffffffffffffffffffffffffffffff1673ffffffffffffffffffffffffffffffffffffffff16815260200190815260200160002054821115151561209c57600080fd5b6120ee82600160003373ffffffffffffffffffffffffffffffffffffffff1673ffffffffffffffffffffffffffffffffffffffff16815260200190815260200160002054611fa290919063ffffffff16565b600160003373ffffffffffffffffffffffffffffffffffffffff1673ffffffffffffffffffffffffffffffffffffffff1681526020019081526020016000208190555061218382600160008673ffffffffffffffffffffffffffffffffffffffff1673ffffffffffffffffffffffffffffffffffffffff1681526020019081526020016000205461223590919063ffffffff16565b600160008573ffffffffffffffffffffffffffffffffffffffff1673ffffffffffffffffffffffffffffffffffffffff168152602001908152602001600020819055508273ffffffffffffffffffffffffffffffffffffffff163373ffffffffffffffffffffffffffffffffffffffff167fddf252ad1be2c89b69c2b068fc378daa952ba7f163c4a11628f55a4df523b3ef846040518082815260200191505060405180910390a36001905092915050565b600080828401905083811015151561224957fe5b8091505092915050565b600061225e836115cd565b9050818111151561226e57600080fd5b600454600760008573ffffffffffffffffffffffffffffffffffffffff1673ffffffffffffffffffffffffffffffffffffffff168152602001908152602001600020819055506122c981600654611fa290919063ffffffff16565b6006819055508273ffffffffffffffffffffffffffffffffffffffff166108fc6122fc8484611fa290919063ffffffff16565b9081150290604051600060405180830381858888f19350505050151561232157600080fd5b7f07b1526e2f035ef911e77f3cf6560584097ade503cab29f5f26627567bb458338382604051808373ffffffffffffffffffffffffffffffffffffffff1673ffffffffffffffffffffffffffffffffffffffff1681526020018281526020019250505060405180910390a1505050565b6000341115156123a057600080fd5b6123b53460045461223590919063ffffffff16565b6004819055506123d03460065461223590919063ffffffff16565b60068190555060016005600082825401925050819055507f0a7e62da6c245712bbc5c4cbee420b13962754304bf2ad8d01c9ec4eab623f5260055434604051808381526020018281526020019250505060405180910390a15600a165627a7a72305820668e845b1e535f8e86ea537d8fe910cfb732a81898cbd7a26866064878457a5b0029",
  "source": "pragma solidity ^0.4.2;\n\n\nimport \"./token/ERC20/StandardToken.sol\";\nimport \"./token/ERC20/BurnableToken.sol\";\nimport \"./ownership/Ownable.sol\";\n\nimport \"./ESlotsICOToken.sol\";\n\n\n/**\n * @title eSlotsToken\n * @dev See more info https://eslots.io\n */\ncontract ESlotsToken is Ownable, StandardToken, ESlotsICOToken {\n\n  event Burn(address indexed burner, uint256 value);\n\n  enum State { ActiveICO, CompletedICO }\n  State public state;\n\n  uint256 public constant INITIAL_SUPPLY = 50000000 * (10 ** uint256(decimals));\n\n  address founders = 0x7b97B31E12f7d029769c53cB91c83d29611A4F7A;\n  uint256 public constant foundersStake = 10; //10% to founders\n  uint256 public constant dividendRoundsBeforeFoundersStakeUnlock = 4;\n  uint256 maxFoundersTokens;\n  uint256 tokensToSale;\n\n  uint256 transferGASUsage;\n\n  /**\n   * @dev Constructor that gives msg.sender all of existing tokens.\n   */\n  function ESlotsToken() public {\n    totalSupply_ = INITIAL_SUPPLY;\n    maxFoundersTokens = INITIAL_SUPPLY.mul(foundersStake).div(100);\n    tokensToSale = INITIAL_SUPPLY - maxFoundersTokens;\n    balances[msg.sender] = tokensToSale;\n    Transfer(0x0, msg.sender, balances[msg.sender]);\n    state = State.ActiveICO;\n    transferGASUsage = 21000;\n  }\n\n  function maxTokensToSale() public view returns (uint256) {\n    return tokensToSale;\n  }\n\n  function availableTokens() public view returns (uint256) {\n    return balances[owner];\n  }\n\n  function setGasUsage(uint256 newGasUsage) public onlyOwner {\n    transferGASUsage = newGasUsage;\n  }\n\n  //run it after ESlotsCrowdsale contract is deployed to approve token spending\n  function connectCrowdsaleContract(address crowdsaleContract) public onlyOwner {\n    approve(crowdsaleContract, balances[owner]);\n  }\n\n  //burn unsold tokens\n  function completeICO() public onlyOwner {\n    require(state == State.ActiveICO);\n    state = State.CompletedICO;\n    uint256 soldTokens = tokensToSale.sub(balances[owner]);\n    uint256 foundersTokens = soldTokens.mul(foundersStake).div(100);\n    if(foundersTokens > maxFoundersTokens) {\n      //normally we never reach this point\n      foundersTokens = maxFoundersTokens;\n    }\n    BasicToken.transfer(founders, foundersTokens);\n    totalSupply_ = soldTokens.add(foundersTokens);\n    balances[owner] = 0;\n    Burn(msg.sender, INITIAL_SUPPLY.sub(totalSupply_));\n  }\n\n\n  //handle dividends\n  function transfer(address _to, uint256 _value) public returns (bool) {\n    if(msg.sender == founders) {\n      //lock operation with tokens for founders\n      require(totalDividendsAmount > 0 && totalDividendsRounds > dividendRoundsBeforeFoundersStakeUnlock);\n    }\n    //transfer is allowed only then all dividends are claimed\n    require(payedDividends[msg.sender] == totalDividendsAmount);\n    require(balances[_to] == 0 || payedDividends[_to] == totalDividendsAmount);\n    bool res =  BasicToken.transfer(_to, _value);\n    if(res && payedDividends[_to] != totalDividendsAmount) {\n      payedDividends[_to] = totalDividendsAmount;\n    }\n    return res;\n  }\n\n  function transferFrom(address _from, address _to, uint256 _value) public returns (bool) {\n    if(msg.sender == founders) {\n      //lock operation with tokens for founders\n      require(totalDividendsAmount > 0 && totalDividendsRounds > dividendRoundsBeforeFoundersStakeUnlock);\n    }\n    //transfer is allowed only then all dividends are claimed\n    require(payedDividends[_from] == totalDividendsAmount);\n    require(balances[_to] == 0 || payedDividends[_to] == totalDividendsAmount);\n    bool res = StandardToken.transferFrom(_from, _to, _value);\n    if(res && payedDividends[_to] != totalDividendsAmount) {\n      payedDividends[_to] = totalDividendsAmount;\n    }\n    return res;\n  }\n\n  //Dividends\n\n  modifier onlyThenCompletedICO {\n    require(state == State.CompletedICO);\n    _;\n  }\n\n  function dividendsAmount(address investor) public onlyThenCompletedICO constant returns (uint256)  {\n    if(totalSupply_ == 0) {return 0;}\n    if(balances[investor] == 0) {return 0;}\n    if(payedDividends[investor] >= totalDividendsAmount) {return 0;}\n    return (totalDividendsAmount - payedDividends[investor]).mul(balances[investor]).div(totalSupply_);\n  }\n\n  function claimDividends() payable public onlyThenCompletedICO {\n    //gasUsage = 0 because a caller pays for that\n    sendDividends(msg.sender, 0);\n\n  }\n\n  //force dividend payments if they hasn't been claimed by token holder before\n  function pushDividends(address investor) payable public onlyThenCompletedICO {\n    //because we pay for gas\n    sendDividends(investor, transferGASUsage.mul(tx.gasprice));\n  }\n\n  function sendDividends(address investor, uint256 gasUsage) internal {\n    uint256 value = dividendsAmount(investor);\n    require(value > gasUsage);\n    payedDividends[investor] = totalDividendsAmount;\n    totalUnPayedDividendsAmount = totalUnPayedDividendsAmount.sub(value);\n    investor.transfer(value.sub(gasUsage));\n    ClaimDividends(investor, value);\n  }\n\n  function payDividends() payable public onlyThenCompletedICO {\n    DividendContract.payDividends();\n  }\n}\n",
  "sourcePath": "/Users/maestro/Documents/proj/slot-server/contract/src/contracts/ESlotsToken.sol",
  "compiler": {
    "name": "solc",
    "version": "0.4.19+commit.c4cbbb05.Emscripten.clang"
  },
  "schemaVersion": "2.0.0",
  "updatedAt": "2018-03-20T11:32:02.267Z"
}