{
  "contractName": "Heritable",
  "abi": [
    {
      "constant": true,
      "inputs": [],
      "name": "owner",
      "outputs": [
        {
          "name": "",
          "type": "address"
        }
      ],
      "payable": false,
      "stateMutability": "view",
      "type": "function"
    },
    {
      "constant": false,
      "inputs": [
        {
          "name": "newOwner",
          "type": "address"
        }
      ],
      "name": "transferOwnership",
      "outputs": [],
      "payable": false,
      "stateMutability": "nonpayable",
      "type": "function"
    },
    {
      "inputs": [
        {
          "name": "_heartbeatTimeout",
          "type": "uint256"
        }
      ],
      "payable": false,
      "stateMutability": "nonpayable",
      "type": "constructor"
    },
    {
      "anonymous": false,
      "inputs": [
        {
          "indexed": true,
          "name": "owner",
          "type": "address"
        },
        {
          "indexed": true,
          "name": "newHeir",
          "type": "address"
        }
      ],
      "name": "HeirChanged",
      "type": "event"
    },
    {
      "anonymous": false,
      "inputs": [
        {
          "indexed": true,
          "name": "owner",
          "type": "address"
        }
      ],
      "name": "OwnerHeartbeated",
      "type": "event"
    },
    {
      "anonymous": false,
      "inputs": [
        {
          "indexed": true,
          "name": "owner",
          "type": "address"
        },
        {
          "indexed": true,
          "name": "heir",
          "type": "address"
        },
        {
          "indexed": false,
          "name": "timeOfDeath",
          "type": "uint256"
        }
      ],
      "name": "OwnerProclaimedDead",
      "type": "event"
    },
    {
      "anonymous": false,
      "inputs": [
        {
          "indexed": true,
          "name": "previousOwner",
          "type": "address"
        },
        {
          "indexed": true,
          "name": "newOwner",
          "type": "address"
        }
      ],
      "name": "HeirOwnershipClaimed",
      "type": "event"
    },
    {
      "anonymous": false,
      "inputs": [
        {
          "indexed": true,
          "name": "previousOwner",
          "type": "address"
        },
        {
          "indexed": true,
          "name": "newOwner",
          "type": "address"
        }
      ],
      "name": "OwnershipTransferred",
      "type": "event"
    },
    {
      "constant": false,
      "inputs": [
        {
          "name": "newHeir",
          "type": "address"
        }
      ],
      "name": "setHeir",
      "outputs": [],
      "payable": false,
      "stateMutability": "nonpayable",
      "type": "function"
    },
    {
      "constant": true,
      "inputs": [],
      "name": "heir",
      "outputs": [
        {
          "name": "",
          "type": "address"
        }
      ],
      "payable": false,
      "stateMutability": "view",
      "type": "function"
    },
    {
      "constant": true,
      "inputs": [],
      "name": "heartbeatTimeout",
      "outputs": [
        {
          "name": "",
          "type": "uint256"
        }
      ],
      "payable": false,
      "stateMutability": "view",
      "type": "function"
    },
    {
      "constant": true,
      "inputs": [],
      "name": "timeOfDeath",
      "outputs": [
        {
          "name": "",
          "type": "uint256"
        }
      ],
      "payable": false,
      "stateMutability": "view",
      "type": "function"
    },
    {
      "constant": false,
      "inputs": [],
      "name": "removeHeir",
      "outputs": [],
      "payable": false,
      "stateMutability": "nonpayable",
      "type": "function"
    },
    {
      "constant": false,
      "inputs": [],
      "name": "proclaimDeath",
      "outputs": [],
      "payable": false,
      "stateMutability": "nonpayable",
      "type": "function"
    },
    {
      "constant": false,
      "inputs": [],
      "name": "heartbeat",
      "outputs": [],
      "payable": false,
      "stateMutability": "nonpayable",
      "type": "function"
    },
    {
      "constant": false,
      "inputs": [],
      "name": "claimHeirOwnership",
      "outputs": [],
      "payable": false,
      "stateMutability": "nonpayable",
      "type": "function"
    }
  ],
  "bytecode": "0x6060604052341561000f57600080fd5b604051602080610c4183398101604052808051906020019091905050336000806101000a81548173ffffffffffffffffffffffffffffffffffffffff021916908373ffffffffffffffffffffffffffffffffffffffff1602179055506100878161008d64010000000002610a6a176401000000009004565b50610124565b6000809054906101000a900473ffffffffffffffffffffffffffffffffffffffff1673ffffffffffffffffffffffffffffffffffffffff163373ffffffffffffffffffffffffffffffffffffffff161415156100e857600080fd5b61010361011864010000000002610a5e176401000000009004565b151561010e57600080fd5b8060028190555050565b60008060035414905090565b610b0e806101336000396000f3006060604052600436106100a4576000357c0100000000000000000000000000000000000000000000000000000000900463ffffffff1680631c921e16146100a957806323defc77146100be57806324845131146100f75780633defb9621461010c5780637bca38be146101215780638da5cb5b1461014a57806391f2ebb81461019f578063b4a8f3e6146101f4578063ebf88de41461021d578063f2fde38b14610232575b600080fd5b34156100b457600080fd5b6100bc61026b565b005b34156100c957600080fd5b6100f5600480803573ffffffffffffffffffffffffffffffffffffffff16906020019091905050610496565b005b341561010257600080fd5b61010a610614565b005b341561011757600080fd5b61011f610736565b005b341561012c57600080fd5b6101346107ff565b6040518082815260200191505060405180910390f35b341561015557600080fd5b61015d610809565b604051808273ffffffffffffffffffffffffffffffffffffffff1673ffffffffffffffffffffffffffffffffffffffff16815260200191505060405180910390f35b34156101aa57600080fd5b6101b261082e565b604051808273ffffffffffffffffffffffffffffffffffffffff1673ffffffffffffffffffffffffffffffffffffffff16815260200191505060405180910390f35b34156101ff57600080fd5b610207610858565b6040518082815260200191505060405180910390f35b341561022857600080fd5b610230610862565b005b341561023d57600080fd5b610269600480803573ffffffffffffffffffffffffffffffffffffffff16906020019091905050610909565b005b600160009054906101000a900473ffffffffffffffffffffffffffffffffffffffff1673ffffffffffffffffffffffffffffffffffffffff163373ffffffffffffffffffffffffffffffffffffffff161415156102c757600080fd5b6102cf610a5e565b1515156102db57600080fd5b6002546003540142101515156102f057600080fd5b600160009054906101000a900473ffffffffffffffffffffffffffffffffffffffff1673ffffffffffffffffffffffffffffffffffffffff166000809054906101000a900473ffffffffffffffffffffffffffffffffffffffff1673ffffffffffffffffffffffffffffffffffffffff167f8be0079c531659141344cd1fd0a4f28419497f9722a3daafe3b4186f6b6457e060405160405180910390a3600160009054906101000a900473ffffffffffffffffffffffffffffffffffffffff1673ffffffffffffffffffffffffffffffffffffffff166000809054906101000a900473ffffffffffffffffffffffffffffffffffffffff1673ffffffffffffffffffffffffffffffffffffffff167f1017a357e19071e4408dbd385f24e591aa5bcee52b444dc0c8abddbe6ad29de660405160405180910390a3600160009054906101000a900473ffffffffffffffffffffffffffffffffffffffff166000806101000a81548173ffffffffffffffffffffffffffffffffffffffff021916908373ffffffffffffffffffffffffffffffffffffffff1602179055506000600381905550565b6000809054906101000a900473ffffffffffffffffffffffffffffffffffffffff1673ffffffffffffffffffffffffffffffffffffffff163373ffffffffffffffffffffffffffffffffffffffff161415156104f157600080fd5b6000809054906101000a900473ffffffffffffffffffffffffffffffffffffffff1673ffffffffffffffffffffffffffffffffffffffff168173ffffffffffffffffffffffffffffffffffffffff161415151561054d57600080fd5b610555610736565b8073ffffffffffffffffffffffffffffffffffffffff166000809054906101000a900473ffffffffffffffffffffffffffffffffffffffff1673ffffffffffffffffffffffffffffffffffffffff167f4e6093f85fa64484abd692810d8a44d508792ff7b7a021d9fbd69fa1c6ff18a060405160405180910390a380600160006101000a81548173ffffffffffffffffffffffffffffffffffffffff021916908373ffffffffffffffffffffffffffffffffffffffff16021790555050565b600160009054906101000a900473ffffffffffffffffffffffffffffffffffffffff1673ffffffffffffffffffffffffffffffffffffffff163373ffffffffffffffffffffffffffffffffffffffff1614151561067057600080fd5b610678610a5e565b151561068357600080fd5b600160009054906101000a900473ffffffffffffffffffffffffffffffffffffffff1673ffffffffffffffffffffffffffffffffffffffff166000809054906101000a900473ffffffffffffffffffffffffffffffffffffffff1673ffffffffffffffffffffffffffffffffffffffff167f66389f1f3251c39e71cb18351daefea45bda23e98df0767266b8aed4ff9382776003546040518082815260200191505060405180910390a342600381905550565b6000809054906101000a900473ffffffffffffffffffffffffffffffffffffffff1673ffffffffffffffffffffffffffffffffffffffff163373ffffffffffffffffffffffffffffffffffffffff1614151561079157600080fd5b6000809054906101000a900473ffffffffffffffffffffffffffffffffffffffff1673ffffffffffffffffffffffffffffffffffffffff167fd40b9d9a7572411aff4bbb95ba7bd9a9d4e9b70747ec46f8fe7913c309b6845260405160405180910390a26000600381905550565b6000600254905090565b6000809054906101000a900473ffffffffffffffffffffffffffffffffffffffff1681565b6000600160009054906101000a900473ffffffffffffffffffffffffffffffffffffffff16905090565b6000600354905090565b6000809054906101000a900473ffffffffffffffffffffffffffffffffffffffff1673ffffffffffffffffffffffffffffffffffffffff163373ffffffffffffffffffffffffffffffffffffffff161415156108bd57600080fd5b6108c5610736565b6000600160006101000a81548173ffffffffffffffffffffffffffffffffffffffff021916908373ffffffffffffffffffffffffffffffffffffffff160217905550565b6000809054906101000a900473ffffffffffffffffffffffffffffffffffffffff1673ffffffffffffffffffffffffffffffffffffffff163373ffffffffffffffffffffffffffffffffffffffff1614151561096457600080fd5b600073ffffffffffffffffffffffffffffffffffffffff168173ffffffffffffffffffffffffffffffffffffffff16141515156109a057600080fd5b8073ffffffffffffffffffffffffffffffffffffffff166000809054906101000a900473ffffffffffffffffffffffffffffffffffffffff1673ffffffffffffffffffffffffffffffffffffffff167f8be0079c531659141344cd1fd0a4f28419497f9722a3daafe3b4186f6b6457e060405160405180910390a3806000806101000a81548173ffffffffffffffffffffffffffffffffffffffff021916908373ffffffffffffffffffffffffffffffffffffffff16021790555050565b60008060035414905090565b6000809054906101000a900473ffffffffffffffffffffffffffffffffffffffff1673ffffffffffffffffffffffffffffffffffffffff163373ffffffffffffffffffffffffffffffffffffffff16141515610ac557600080fd5b610acd610a5e565b1515610ad857600080fd5b80600281905550505600a165627a7a723058205ab97f6b5d0a75bf5a81d15b6a46f66913773e1c275c49f182f5d01a5166bd390029",
  "source": "pragma solidity ^0.4.11;\n\n\nimport \"./Ownable.sol\";\n\n\n/**\n * @title Heritable\n * @dev The Heritable contract provides ownership transfer capabilities, in the\n * case that the current owner stops \"heartbeating\". Only the heir can pronounce the\n * owner's death.\n */\ncontract Heritable is Ownable {\n  address private heir_;\n\n  // Time window the owner has to notify they are alive.\n  uint256 private heartbeatTimeout_;\n\n  // Timestamp of the owner's death, as pronounced by the heir.\n  uint256 private timeOfDeath_;\n\n  event HeirChanged(address indexed owner, address indexed newHeir);\n  event OwnerHeartbeated(address indexed owner);\n  event OwnerProclaimedDead(address indexed owner, address indexed heir, uint256 timeOfDeath);\n  event HeirOwnershipClaimed(address indexed previousOwner, address indexed newOwner);\n\n\n  /**\n   * @dev Throw an exception if called by any account other than the heir's.\n   */\n  modifier onlyHeir() {\n    require(msg.sender == heir_);\n    _;\n  }\n\n\n  /**\n   * @notice Create a new Heritable Contract with heir address 0x0.\n   * @param _heartbeatTimeout time available for the owner to notify they are alive,\n   * before the heir can take ownership.\n   */\n  function Heritable(uint256 _heartbeatTimeout) public {\n    setHeartbeatTimeout(_heartbeatTimeout);\n  }\n\n  function setHeir(address newHeir) public onlyOwner {\n    require(newHeir != owner);\n    heartbeat();\n    HeirChanged(owner, newHeir);\n    heir_ = newHeir;\n  }\n\n  /**\n   * @dev Use these getter functions to access the internal variables in\n   * an inherited contract.\n   */\n  function heir() public view returns(address) {\n    return heir_;\n  }\n\n  function heartbeatTimeout() public view returns(uint256) {\n    return heartbeatTimeout_;\n  }\n  \n  function timeOfDeath() public view returns(uint256) {\n    return timeOfDeath_;\n  }\n\n  /**\n   * @dev set heir = 0x0\n   */\n  function removeHeir() public onlyOwner {\n    heartbeat();\n    heir_ = 0;\n  }\n\n  /**\n   * @dev Heir can pronounce the owners death. To claim the ownership, they will\n   * have to wait for `heartbeatTimeout` seconds.\n   */\n  function proclaimDeath() public onlyHeir {\n    require(ownerLives());\n    OwnerProclaimedDead(owner, heir_, timeOfDeath_);\n    timeOfDeath_ = block.timestamp;\n  }\n\n  /**\n   * @dev Owner can send a heartbeat if they were mistakenly pronounced dead.\n   */\n  function heartbeat() public onlyOwner {\n    OwnerHeartbeated(owner);\n    timeOfDeath_ = 0;\n  }\n\n  /**\n   * @dev Allows heir to transfer ownership only if heartbeat has timed out.\n   */\n  function claimHeirOwnership() public onlyHeir {\n    require(!ownerLives());\n    require(block.timestamp >= timeOfDeath_ + heartbeatTimeout_);\n    OwnershipTransferred(owner, heir_);\n    HeirOwnershipClaimed(owner, heir_);\n    owner = heir_;\n    timeOfDeath_ = 0;\n  }\n\n  function setHeartbeatTimeout(uint256 newHeartbeatTimeout) internal onlyOwner {\n    require(ownerLives());\n    heartbeatTimeout_ = newHeartbeatTimeout;\n  }\n\n  function ownerLives() internal view returns (bool) {\n    return timeOfDeath_ == 0;\n  }\n}\n",
  "sourcePath": "/Users/maestro/Documents/proj/slot-server/contract/src/contracts/ownership/Heritable.sol",
  "compiler": {
    "name": "solc",
    "version": "0.4.19+commit.c4cbbb05.Emscripten.clang"
  },
  "schemaVersion": "2.0.0",
  "updatedAt": "2018-03-03T09:20:38.727Z"
}