{
  "contractName": "SlotMachineGambling",
  "abi": [
    {
      "constant": true,
      "inputs": [],
      "name": "owner",
      "outputs": [
        {
          "name": "",
          "type": "address"
        }
      ],
      "payable": false,
      "stateMutability": "view",
      "type": "function"
    },
    {
      "constant": true,
      "inputs": [
        {
          "name": "",
          "type": "address"
        }
      ],
      "name": "players",
      "outputs": [
        {
          "name": "coins",
          "type": "uint32"
        },
        {
          "name": "isGameInProcess",
          "type": "bool"
        },
        {
          "name": "endGameBlock",
          "type": "uint256"
        },
        {
          "name": "gasCollected",
          "type": "uint256"
        },
        {
          "name": "gasSpent",
          "type": "uint256"
        }
      ],
      "payable": false,
      "stateMutability": "view",
      "type": "function"
    },
    {
      "inputs": [
        {
          "name": "tokenContract",
          "type": "address"
        }
      ],
      "payable": false,
      "stateMutability": "nonpayable",
      "type": "constructor"
    },
    {
      "payable": true,
      "stateMutability": "payable",
      "type": "fallback"
    },
    {
      "constant": false,
      "inputs": [
        {
          "name": "newOwner",
          "type": "address"
        }
      ],
      "name": "transferOwnership",
      "outputs": [],
      "payable": false,
      "stateMutability": "nonpayable",
      "type": "function"
    },
    {
      "constant": false,
      "inputs": [
        {
          "name": "newPrice",
          "type": "uint256"
        }
      ],
      "name": "setCoinPrice",
      "outputs": [],
      "payable": false,
      "stateMutability": "nonpayable",
      "type": "function"
    },
    {
      "constant": false,
      "inputs": [
        {
          "name": "newAmount",
          "type": "uint256"
        }
      ],
      "name": "setMinBankroll",
      "outputs": [],
      "payable": false,
      "stateMutability": "nonpayable",
      "type": "function"
    },
    {
      "constant": false,
      "inputs": [
        {
          "name": "newAmount",
          "type": "uint256"
        }
      ],
      "name": "setGasLimit",
      "outputs": [],
      "payable": false,
      "stateMutability": "nonpayable",
      "type": "function"
    },
    {
      "constant": false,
      "inputs": [
        {
          "name": "newAmount",
          "type": "uint256"
        }
      ],
      "name": "setGasDefaultPrice",
      "outputs": [],
      "payable": false,
      "stateMutability": "nonpayable",
      "type": "function"
    },
    {
      "constant": false,
      "inputs": [
        {
          "name": "newAddress",
          "type": "address"
        }
      ],
      "name": "setBackendAddress",
      "outputs": [],
      "payable": false,
      "stateMutability": "nonpayable",
      "type": "function"
    },
    {
      "constant": true,
      "inputs": [],
      "name": "getSpinCost",
      "outputs": [
        {
          "name": "",
          "type": "uint256"
        }
      ],
      "payable": false,
      "stateMutability": "view",
      "type": "function"
    },
    {
      "constant": true,
      "inputs": [],
      "name": "getCoinPriceWithGas",
      "outputs": [
        {
          "name": "",
          "type": "uint256"
        }
      ],
      "payable": false,
      "stateMutability": "view",
      "type": "function"
    },
    {
      "constant": true,
      "inputs": [],
      "name": "getCoinPrice",
      "outputs": [
        {
          "name": "",
          "type": "uint256"
        }
      ],
      "payable": false,
      "stateMutability": "view",
      "type": "function"
    },
    {
      "constant": false,
      "inputs": [
        {
          "name": "amount",
          "type": "uint256"
        }
      ],
      "name": "payDividends",
      "outputs": [],
      "payable": true,
      "stateMutability": "payable",
      "type": "function"
    },
    {
      "constant": false,
      "inputs": [],
      "name": "startGame",
      "outputs": [],
      "payable": true,
      "stateMutability": "payable",
      "type": "function"
    },
    {
      "constant": true,
      "inputs": [
        {
          "name": "playerAddress",
          "type": "address"
        }
      ],
      "name": "getWithdrawAmount",
      "outputs": [
        {
          "name": "",
          "type": "uint256"
        }
      ],
      "payable": false,
      "stateMutability": "view",
      "type": "function"
    },
    {
      "constant": false,
      "inputs": [],
      "name": "withdraw",
      "outputs": [
        {
          "name": "",
          "type": "bool"
        }
      ],
      "payable": false,
      "stateMutability": "nonpayable",
      "type": "function"
    },
    {
      "constant": true,
      "inputs": [
        {
          "name": "playerAddress",
          "type": "address"
        }
      ],
      "name": "coins",
      "outputs": [
        {
          "name": "",
          "type": "uint32"
        }
      ],
      "payable": false,
      "stateMutability": "view",
      "type": "function"
    },
    {
      "constant": false,
      "inputs": [
        {
          "name": "playerAddress",
          "type": "address"
        }
      ],
      "name": "stopGame",
      "outputs": [],
      "payable": false,
      "stateMutability": "nonpayable",
      "type": "function"
    },
    {
      "constant": false,
      "inputs": [],
      "name": "cleanup",
      "outputs": [],
      "payable": false,
      "stateMutability": "nonpayable",
      "type": "function"
    },
    {
      "constant": false,
      "inputs": [
        {
          "name": "playerAddress",
          "type": "address"
        },
        {
          "name": "reels",
          "type": "uint8[]"
        }
      ],
      "name": "spin3",
      "outputs": [],
      "payable": false,
      "stateMutability": "nonpayable",
      "type": "function"
    }
  ],
  "bytecode": "0x606060405273cbeb7496186d4b570b8e7a66cc78892a25909dd5600360006101000a81548173ffffffffffffffffffffffffffffffffffffffff021916908373ffffffffffffffffffffffffffffffffffffffff16021790555073fc14521471bba1884b4b6d0b7d60a22e3526998d600460006101000a81548173ffffffffffffffffffffffffffffffffffffffff021916908373ffffffffffffffffffffffffffffffffffffffff1602179055503415620000ba57600080fd5b604051602080620019f88339810160405280805190602001909190505080600073ffffffffffffffffffffffffffffffffffffffff168173ffffffffffffffffffffffffffffffffffffffff16141515156200011557600080fd5b806000806101000a81548173ffffffffffffffffffffffffffffffffffffffff021916908373ffffffffffffffffffffffffffffffffffffffff1602179055506000809054906101000a900473ffffffffffffffffffffffffffffffffffffffff16600160006101000a81548173ffffffffffffffffffffffffffffffffffffffff021916908373ffffffffffffffffffffffffffffffffffffffff1602179055505033600260006101000a81548173ffffffffffffffffffffffffffffffffffffffff021916908373ffffffffffffffffffffffffffffffffffffffff16021790555066038d7ea4c680006005819055506103e8600460146101000a81548163ffffffff021916908363ffffffff16021790555060026006819055506064600760006101000a81548163ffffffff021916908363ffffffff16021790555061b1bf600981905550620493e0600b819055506409502f9000600a8190555061f19a600c81905550678ac7230489e8000060088190555060c8600d60006002811015156200029e57fe5b016000600581101515620002ae57fe5b600891828204019190066004026101000a81548163ffffffff021916908363ffffffff1602179055506032600d6000600281101515620002ea57fe5b016001600581101515620002fa57fe5b600891828204019190066004026101000a81548163ffffffff021916908363ffffffff160217905550600a600d60006002811015156200033657fe5b0160026005811015156200034657fe5b600891828204019190066004026101000a81548163ffffffff021916908363ffffffff1602179055506001600d60006002811015156200038257fe5b0160036005811015156200039257fe5b600891828204019190066004026101000a81548163ffffffff021916908363ffffffff1602179055506005600d6000600281101515620003ce57fe5b016004600581101515620003de57fe5b600891828204019190066004026101000a81548163ffffffff021916908363ffffffff1602179055506103e8600d60016002811015156200041b57fe5b0160006005811015156200042b57fe5b600891828204019190066004026101000a81548163ffffffff021916908363ffffffff1602179055506096600d60016002811015156200046757fe5b0160016005811015156200047757fe5b600891828204019190066004026101000a81548163ffffffff021916908363ffffffff1602179055506014600d6001600281101515620004b357fe5b016002600581101515620004c357fe5b600891828204019190066004026101000a81548163ffffffff021916908363ffffffff1602179055506002600d6001600281101515620004ff57fe5b0160036005811015156200050f57fe5b600891828204019190066004026101000a81548163ffffffff021916908363ffffffff160217905550600a600d60016002811015156200054b57fe5b0160046005811015156200055b57fe5b600891828204019190066004026101000a81548163ffffffff021916908363ffffffff1602179055505061146380620005956000396000f300606060405260043610610107576000357c0100000000000000000000000000000000000000000000000000000000900463ffffffff1680631815ce7d146101095780633ccfd60b146101425780633cecd7191461016f5780634ea1fcb614610184578063550b47b8146101d15780636adcef6b146101f45780637d0f7a881461020c5780638da5cb5b14610265578063c608d27d146102ba578063cb083b5b146102dd578063cb6af15914610300578063cd0336c014610379578063d4d7aec4146103a2578063d65ab5f2146103cb578063d708e27b146103d5578063e2eb41ff1461040e578063e65adca114610487578063ee7d72b4146104b0578063f2fde38b146104d3575b005b341561011457600080fd5b610140600480803573ffffffffffffffffffffffffffffffffffffffff1690602001909190505061050c565b005b341561014d57600080fd5b610155610604565b604051808215151515815260200191505060405180910390f35b341561017a57600080fd5b61018261070d565b005b341561018f57600080fd5b6101bb600480803573ffffffffffffffffffffffffffffffffffffffff169060200190919050506107e4565b6040518082815260200191505060405180910390f35b34156101dc57600080fd5b6101f26004808035906020019091905050610875565b005b61020a6004808035906020019091905050610933565b005b341561021757600080fd5b610243600480803573ffffffffffffffffffffffffffffffffffffffff16906020019091905050610aa0565b604051808263ffffffff1663ffffffff16815260200191505060405180910390f35b341561027057600080fd5b610278610afc565b604051808273ffffffffffffffffffffffffffffffffffffffff1673ffffffffffffffffffffffffffffffffffffffff16815260200191505060405180910390f35b34156102c557600080fd5b6102db6004808035906020019091905050610b22565b005b34156102e857600080fd5b6102fe6004808035906020019091905050610be0565b005b341561030b57600080fd5b610377600480803573ffffffffffffffffffffffffffffffffffffffff1690602001909190803590602001908201803590602001908080602002602001604051908101604052809392919081815260200183836020028082843782019150505050505091905050610c9e565b005b341561038457600080fd5b61038c610f8f565b6040518082815260200191505060405180910390f35b34156103ad57600080fd5b6103b5610f99565b6040518082815260200191505060405180910390f35b6103d3610fac565b005b34156103e057600080fd5b61040c600480803573ffffffffffffffffffffffffffffffffffffffff1690602001909190505061117c565b005b341561041957600080fd5b610445600480803573ffffffffffffffffffffffffffffffffffffffff16906020019091905050611278565b604051808663ffffffff1663ffffffff168152602001851515151581526020018481526020018381526020018281526020019550505050505060405180910390f35b341561049257600080fd5b61049a6112cb565b6040518082815260200191505060405180910390f35b34156104bb57600080fd5b6104d160048080359060200190919050506112d9565b005b34156104de57600080fd5b61050a600480803573ffffffffffffffffffffffffffffffffffffffff16906020019091905050611397565b005b600260009054906101000a900473ffffffffffffffffffffffffffffffffffffffff1673ffffffffffffffffffffffffffffffffffffffff163373ffffffffffffffffffffffffffffffffffffffff1614806105b55750600360009054906101000a900473ffffffffffffffffffffffffffffffffffffffff1673ffffffffffffffffffffffffffffffffffffffff163373ffffffffffffffffffffffffffffffffffffffff16145b15156105c057600080fd5b80600460006101000a81548173ffffffffffffffffffffffffffffffffffffffff021916908373ffffffffffffffffffffffffffffffffffffffff16021790555050565b6000806000600f60003373ffffffffffffffffffffffffffffffffffffffff1673ffffffffffffffffffffffffffffffffffffffff1681526020019081526020016000209150600015158260000160049054906101000a900460ff16151514151561066e57600080fd5b610677336107e4565b905060008111156107035760008260000160006101000a81548163ffffffff021916908363ffffffff16021790555060008260030181905550600082600201819055503373ffffffffffffffffffffffffffffffffffffffff166108fc829081150290604051600060405180830381858888f1935050505015156106fa57600080fd5b60019250610708565b600092505b505090565b600460009054906101000a900473ffffffffffffffffffffffffffffffffffffffff1673ffffffffffffffffffffffffffffffffffffffff163373ffffffffffffffffffffffffffffffffffffffff1614151561076957600080fd5b600460009054906101000a900473ffffffffffffffffffffffffffffffffffffffff1673ffffffffffffffffffffffffffffffffffffffff166108fc3073ffffffffffffffffffffffffffffffffffffffff16319081150290604051600060405180830381858888f1935050505015156107e257600080fd5b565b6000806000600f60008573ffffffffffffffffffffffffffffffffffffffff1673ffffffffffffffffffffffffffffffffffffffff16815260200190815260200160002091506005548260000160009054906101000a900463ffffffff1663ffffffff1602905081600301548260020154111561086b578160030154826002015403810190505b8092505050919050565b600260009054906101000a900473ffffffffffffffffffffffffffffffffffffffff1673ffffffffffffffffffffffffffffffffffffffff163373ffffffffffffffffffffffffffffffffffffffff16148061091e5750600360009054906101000a900473ffffffffffffffffffffffffffffffffffffffff1673ffffffffffffffffffffffffffffffffffffffff163373ffffffffffffffffffffffffffffffffffffffff16145b151561092957600080fd5b8060058190555050565b600080600080600460009054906101000a900473ffffffffffffffffffffffffffffffffffffffff1673ffffffffffffffffffffffffffffffffffffffff163373ffffffffffffffffffffffffffffffffffffffff1614151561099557600080fd5b6000851180156109bb5750843073ffffffffffffffffffffffffffffffffffffffff1631115b15156109c657600080fd5b600b5493503a840292508285039150813073ffffffffffffffffffffffffffffffffffffffff1631039050600081111515610a0057600080fd5b600160009054906101000a900473ffffffffffffffffffffffffffffffffffffffff1673ffffffffffffffffffffffffffffffffffffffff1663de88a3428386906040518363ffffffff167c01000000000000000000000000000000000000000000000000000000000281526004016000604051808303818589803b1515610a8757600080fd5b88f11515610a9457600080fd5b50505050505050505050565b6000600f60008373ffffffffffffffffffffffffffffffffffffffff1673ffffffffffffffffffffffffffffffffffffffff16815260200190815260200160002060000160009054906101000a900463ffffffff169050919050565b600260009054906101000a900473ffffffffffffffffffffffffffffffffffffffff1681565b600260009054906101000a900473ffffffffffffffffffffffffffffffffffffffff1673ffffffffffffffffffffffffffffffffffffffff163373ffffffffffffffffffffffffffffffffffffffff161480610bcb5750600360009054906101000a900473ffffffffffffffffffffffffffffffffffffffff1673ffffffffffffffffffffffffffffffffffffffff163373ffffffffffffffffffffffffffffffffffffffff16145b1515610bd657600080fd5b8060088190555050565b600260009054906101000a900473ffffffffffffffffffffffffffffffffffffffff1673ffffffffffffffffffffffffffffffffffffffff163373ffffffffffffffffffffffffffffffffffffffff161480610c895750600360009054906101000a900473ffffffffffffffffffffffffffffffffffffffff1673ffffffffffffffffffffffffffffffffffffffff163373ffffffffffffffffffffffffffffffffffffffff16145b1515610c9457600080fd5b80600a8190555050565b600080600080600080600080600080600080600460009054906101000a900473ffffffffffffffffffffffffffffffffffffffff1673ffffffffffffffffffffffffffffffffffffffff163373ffffffffffffffffffffffffffffffffffffffff16141515610d0c57600080fd5b5a9b50600f60008f73ffffffffffffffffffffffffffffffffffffffff1673ffffffffffffffffffffffffffffffffffffffff1681526020019081526020016000209a508a60000160049054906101000a900460ff168015610d88575060008b60000160009054906101000a900463ffffffff1663ffffffff16115b1515610d9357600080fd5b600760009054906101000a900463ffffffff1663ffffffff169950898d511015610dbc578c5199505b600098508a60000160009054906101000a900463ffffffff169750600098505b89891015610f32578c89815181101515610df257fe5b90602001906020020151965060038716955060018660ff161480610e19575060028660ff16145b1515610e2457600080fd5b8560ff168863ffffffff1610151515610e3c57600080fd5b8560ff1688039750600360028860ff169060020a9004169450600360048860ff169060020a9004169350600360068860ff169060020a900416925060ff91508360ff168560ff16148015610e9557508260ff168460ff16145b15610ea257849150610ed2565b60038560ff16108015610eb8575060038460ff16105b8015610ec7575060038360ff16105b15610ed157600491505b5b60058260ff161015610f2557600d6001870360ff16600281101515610ef357fe5b018260ff16600581101515610f0457fe5b600891828204019190066004029054906101000a900463ffffffff16880197505b8880600101995050610ddc565b878b60000160006101000a81548163ffffffff021916908363ffffffff16021790555060018d510360c602615b276117485a8f0301010190503a81028b600301600082825401925050819055505050505050505050505050505050565b6000600554905090565b6000610fa36112cb565b60055401905090565b6000806000806000600f60003373ffffffffffffffffffffffffffffffffffffffff1673ffffffffffffffffffffffffffffffffffffffff1681526020019081526020016000209450610ffd610f99565b935060008560000160009054906101000a900463ffffffff1663ffffffff1611806110285750833410155b151561103357600080fd5b6000341115611158578460000160009054906101000a900463ffffffff1663ffffffff169250600554341015156110f857833481151561106f57fe5b049150818301925061107f6112cb565b82029050600460009054906101000a900473ffffffffffffffffffffffffffffffffffffffff1673ffffffffffffffffffffffffffffffffffffffff166108fc829081150290604051600060405180830381858888f1935050505015156110e557600080fd5b8085600201600082825401925050819055505b600460149054906101000a900463ffffffff1663ffffffff1683111561113457600460149054906101000a900463ffffffff1663ffffffff1692505b828560000160006101000a81548163ffffffff021916908363ffffffff1602179055505b60018560000160046101000a81548160ff0219169083151502179055505050505050565b6000600460009054906101000a900473ffffffffffffffffffffffffffffffffffffffff1673ffffffffffffffffffffffffffffffffffffffff163373ffffffffffffffffffffffffffffffffffffffff161415156111da57600080fd5b600f60008373ffffffffffffffffffffffffffffffffffffffff1673ffffffffffffffffffffffffffffffffffffffff16815260200190815260200160002090508060000160049054906101000a900460ff16151561123857600080fd5b60008160000160046101000a81548160ff0219169083151502179055504381600101819055503a600c540281600301600082825401925050819055505050565b600f6020528060005260406000206000915090508060000160009054906101000a900463ffffffff16908060000160049054906101000a900460ff16908060010154908060020154908060030154905085565b6000600a5460095402905090565b600260009054906101000a900473ffffffffffffffffffffffffffffffffffffffff1673ffffffffffffffffffffffffffffffffffffffff163373ffffffffffffffffffffffffffffffffffffffff1614806113825750600360009054906101000a900473ffffffffffffffffffffffffffffffffffffffff1673ffffffffffffffffffffffffffffffffffffffff163373ffffffffffffffffffffffffffffffffffffffff16145b151561138d57600080fd5b80600b8190555050565b600360009054906101000a900473ffffffffffffffffffffffffffffffffffffffff1673ffffffffffffffffffffffffffffffffffffffff163373ffffffffffffffffffffffffffffffffffffffff161415156113f357600080fd5b80600260006101000a81548173ffffffffffffffffffffffffffffffffffffffff021916908373ffffffffffffffffffffffffffffffffffffffff160217905550505600a165627a7a72305820b811ca05eaadfa790db78a6132ca33925cdc0b5930660e3e5f26ec1db50ff01d0029",
  "source": "pragma solidity ^0.4.2;\n\nimport \"./ESlotsICOTokenDeployed.sol\";\n\ncontract SlotMachineGambling is ESlotsICOTokenDeployed {\n\n    // Owner's address\n    address public owner;\n\n    // Hardcoded address of super owner (for security reasons)\n    address internal super_owner = 0xCbEB7496186D4b570B8e7A66cC78892A25909DD5;\n\n    // Hardcoded address of slot machine backend (for security reasons)\n    address internal backendAddress = 0xfc14521471bba1884B4b6D0B7D60A22e3526998D;\n\n    uint32 maxCoins; // player's maximum balance\n    uint256 coinPrice; // 1 Coin for 0.001 ETH\n    uint256 blocksBeforeWithdraw; // minimum amount of blocks to confirm the game before withdrawal. The game should be stopped.\n    uint32 maxSpinsAtOnce; // maximum spins can be save at once\n\n    uint256 minBankroll;\n\n    uint256 gasPerSpin;\n    uint256 gasPrice;\n    uint256 gasLimit;\n\n    uint256 stopGameGasConsumption;\n\n    uint32[5][2] win3ReelsTable;\n\n    struct Player {\n        uint32 coins; // amount of collected coins\n        bool isGameInProcess;\n        uint256 endGameBlock; // number of the block when coins has been collected\n        uint256 gasCollected;\n        uint256 gasSpent;\n    }\n\n    mapping (address => Player) public players;\n\n    function SlotMachineGambling(address tokenContract) public\n    ESlotsICOTokenDeployed(tokenContract)\n    {\n        owner = msg.sender;\n        coinPrice = 1000000000000000; // 1 Coin for 0.001 ETH\n        maxCoins = 1000; // maximum amount of coins player can buy\n        blocksBeforeWithdraw = 2;\n        maxSpinsAtOnce = 100;\n        gasPerSpin = 21000 + 24503; // amount of gas used to store one single spin\n        gasLimit = 300000;\n        gasPrice = 40000000000; // 40GWei - default gas price\n        stopGameGasConsumption = 61850;\n\n        minBankroll = 10000000000000000000; //10 Ether\n\n        //One coin spin\n        win3ReelsTable[0][0] = 200;// 7 bars in line\n        win3ReelsTable[0][1] = 50;// 5 bars in line\n        win3ReelsTable[0][2] = 10;// 3 bars in line\n        win3ReelsTable[0][3] = 1;// blanks in line\n        win3ReelsTable[0][4] = 5;// only bars in line\n        //double coin spin\n        win3ReelsTable[1][0] = 1000;// 7 bars in line\n        win3ReelsTable[1][1] = 150;// 5 bars in line\n        win3ReelsTable[1][2] = 20;// 3 bars in line\n        win3ReelsTable[1][3] = 2;// blanks in line\n        win3ReelsTable[1][4] = 10;// only bars in line\n\n    }\n\n    // Modifier for owner's functions of the contract\n    modifier onlyOwner {\n        require(msg.sender == owner || msg.sender == super_owner);\n        _;\n    }\n\n    // Modifier for super-owner's functions of the contract\n    modifier onlySuperOwner {\n        require(msg.sender == super_owner);\n        _;\n    }\n\n    // Modifier for gambling backends's functions of the contract\n    modifier onlyBackend {\n        require(msg.sender == backendAddress);\n        _;\n    }\n\n    // Change the owner of the contract\n    function transferOwnership(address newOwner)  public onlySuperOwner {\n        owner = newOwner;\n    }\n\n    function setCoinPrice(uint256 newPrice)  public onlyOwner {\n        coinPrice = newPrice;\n    }\n\n    function setMinBankroll(uint256 newAmount)  public onlyOwner {\n        minBankroll = newAmount;\n    }\n\n    function setGasLimit(uint256 newAmount)  public onlyOwner {\n        gasLimit = newAmount;\n    }\n\n    function setGasDefaultPrice(uint256 newAmount)  public onlyOwner {\n        gasPrice = newAmount;\n    }\n\n    function setBackendAddress(address newAddress)  public onlyOwner {\n        backendAddress = newAddress;\n    }\n\n    function getSpinCost() public constant returns(uint256) {\n        return gasPerSpin*gasPrice;\n    }\n\n    function getCoinPriceWithGas() public constant returns(uint256) {\n        return coinPrice + getSpinCost();\n    }\n\n    function getCoinPrice() public constant returns(uint256) {\n        return coinPrice;\n    }\n\n    function() public payable { }\n\n    function payDividends(uint256 amount) payable public onlyBackend {\n        require(amount > 0 && this.balance > amount);\n        uint256 gas = gasLimit;\n        uint256 gasValue = gas*tx.gasprice;\n        uint256 real_amount = amount - gasValue;\n        uint256 bank = this.balance - real_amount;\n        require(bank > 0);\n        icoContract.payDividends.value(real_amount).gas(gas)();\n    }\n\n    //do not call this function directly - you may loose your ethers if miscount is detected\n    function startGame() payable public {\n        Player storage player = players[msg.sender];\n        uint256 coinPriceWithGas = getCoinPriceWithGas();\n        require(player.coins > 0 || msg.value >= coinPriceWithGas);\n        if(msg.value > 0) {\n            uint256 coins = player.coins;\n            if(msg.value >= coinPrice) {\n                uint256 coinsIncrease = msg.value/coinPriceWithGas;\n                coins += coinsIncrease;\n                //send gas to the backend contract\n                uint256 gasCollected = coinsIncrease*getSpinCost();\n                backendAddress.transfer(gasCollected);\n                player.gasCollected += gasCollected;\n            }\n            if(coins > maxCoins ) {\n                coins = maxCoins;\n            }\n            player.coins = uint32(coins);\n        }\n        player.isGameInProcess = true;\n    }\n\n    function getWithdrawAmount(address playerAddress) public constant returns(uint256) {\n        Player storage player = players[playerAddress];\n        uint256 amount = player.coins*coinPrice;\n        if(player.gasCollected > player.gasSpent) {\n            amount += player.gasCollected - player.gasSpent;\n        }\n        return amount;\n    }\n\n    //do not call this function directly - you may loose your ethers if miscount detected\n    function withdraw() public returns (bool){\n        Player storage player = players[msg.sender];\n        require(player.isGameInProcess == false);\n        //require(block.number > player.endGameBlock && (block.number - player.endGameBlock) >= blocksBeforeWithdraw);\n        uint256 amount = getWithdrawAmount(msg.sender);\n        if (amount > 0) {\n            player.coins = 0;\n            player.gasSpent = 0;\n            player.gasCollected = 0;\n            msg.sender.transfer(amount);\n            return true;\n        }\n        return false;\n    }\n\n    function coins(address playerAddress) public constant returns(uint32) {\n        return players[playerAddress].coins;\n    }\n\n    function stopGame(address playerAddress) public onlyBackend {\n        //uint startGas = msg.gas;\n        Player storage player = players[playerAddress];\n        require(player.isGameInProcess);\n        player.isGameInProcess = false;\n        player.endGameBlock = block.number;\n        //5960 gas used to save gasSpent\n        //player.gasSpent += (startGas - msg.gas + 5960)*tx.gasprice;\n        player.gasSpent += stopGameGasConsumption*tx.gasprice;\n    }\n\n    //for development only - remove in release\n    //todo remove\n    function cleanup() public onlyBackend {\n        backendAddress.transfer(this.balance);\n    }\n\n    function spin3(address playerAddress, uint8[] reels) public onlyBackend {\n        uint startGas = msg.gas;\n        Player storage player = players[playerAddress];\n        require(player.isGameInProcess && player.coins > 0);\n        uint spins = maxSpinsAtOnce;\n        if(reels.length < spins) {\n            spins = reels.length;\n        }\n        uint i = 0;\n        uint32 playerCoins = player.coins;\n        for(i = 0; i < spins; i++) {\n            uint8 rls = reels[i];\n            uint8 multiplier = rls & 0x03;\n            require(multiplier == 1 || multiplier == 2);\n            require(playerCoins >= multiplier);\n            playerCoins -= multiplier;\n            uint8 r1 = (rls >> 2) & 0x03;\n            uint8 r2 = (rls >> 4) & 0x03;\n            uint8 r3 = (rls >> 6) & 0x03;\n            uint8 line = 255;\n            if(r1 == r2 && r2 == r3) {\n                line = r1;\n            } else if (r1 < 3 && r2 < 3 && r3 < 3) {\n                line = 4;\n            }\n            if(line < 5) {\n                playerCoins += win3ReelsTable[multiplier - 1][line];\n            }\n        }\n        player.coins = playerCoins;\n        //5960 gas used for save gasSpent\n        //25472 gas transation cost with one spin\n        //198 gas for each next spin\n        uint256 gasUsed = startGas - msg.gas+5960+23335+198*(reels.length-1);\n        player.gasSpent += gasUsed*tx.gasprice;//(gas to this line + gas used to store spent gas + transactional gas)\n    }\n}\n",
  "sourcePath": "/Users/maestro/Documents/proj/slot-server/contract/src/contracts/SlotMachineGambling.sol",
  "compiler": {
    "name": "solc",
    "version": "0.4.19+commit.c4cbbb05.Emscripten.clang"
  },
  "schemaVersion": "2.0.0",
  "updatedAt": "2018-03-20T10:17:35.016Z"
}